{
  "_format": "hh-sol-artifact-1",
  "contractName": "Tracking",
  "sourceName": "contracts/Tracking.sol",
  "abi": [
    {
      "inputs": [],
      "stateMutability": "nonpayable",
      "type": "constructor"
    },
    {
      "anonymous": false,
      "inputs": [
        {
          "indexed": true,
          "internalType": "address",
          "name": "sender",
          "type": "address"
        },
        {
          "indexed": true,
          "internalType": "address",
          "name": "receiver",
          "type": "address"
        },
        {
          "indexed": false,
          "internalType": "uint256",
          "name": "shipmentId",
          "type": "uint256"
        }
      ],
      "name": "ShipmentCancelled",
      "type": "event"
    },
    {
      "anonymous": false,
      "inputs": [
        {
          "indexed": true,
          "internalType": "address",
          "name": "sender",
          "type": "address"
        },
        {
          "indexed": true,
          "internalType": "address",
          "name": "receiver",
          "type": "address"
        },
        {
          "indexed": false,
          "internalType": "uint256",
          "name": "pickupTime",
          "type": "uint256"
        },
        {
          "indexed": false,
          "internalType": "uint256",
          "name": "distance",
          "type": "uint256"
        },
        {
          "indexed": false,
          "internalType": "uint256",
          "name": "price",
          "type": "uint256"
        }
      ],
      "name": "ShipmentCreated",
      "type": "event"
    },
    {
      "anonymous": false,
      "inputs": [
        {
          "indexed": true,
          "internalType": "address",
          "name": "sender",
          "type": "address"
        },
        {
          "indexed": true,
          "internalType": "address",
          "name": "receiver",
          "type": "address"
        },
        {
          "indexed": false,
          "internalType": "uint256",
          "name": "deliveryTime",
          "type": "uint256"
        }
      ],
      "name": "ShipmentDelivered",
      "type": "event"
    },
    {
      "anonymous": false,
      "inputs": [
        {
          "indexed": true,
          "internalType": "address",
          "name": "sender",
          "type": "address"
        },
        {
          "indexed": true,
          "internalType": "address",
          "name": "receiver",
          "type": "address"
        },
        {
          "indexed": false,
          "internalType": "uint256",
          "name": "pickupTime",
          "type": "uint256"
        }
      ],
      "name": "ShipmentInTransit",
      "type": "event"
    },
    {
      "anonymous": false,
      "inputs": [
        {
          "indexed": true,
          "internalType": "address",
          "name": "sender",
          "type": "address"
        },
        {
          "indexed": true,
          "internalType": "address",
          "name": "receiver",
          "type": "address"
        },
        {
          "indexed": false,
          "internalType": "uint256",
          "name": "amount",
          "type": "uint256"
        }
      ],
      "name": "ShipmentPaid",
      "type": "event"
    },
    {
      "inputs": [
        {
          "internalType": "address",
          "name": "_sender",
          "type": "address"
        },
        {
          "internalType": "address",
          "name": "_receiver",
          "type": "address"
        },
        {
          "internalType": "uint256",
          "name": "shipmentId",
          "type": "uint256"
        }
      ],
      "name": "cancelShipment",
      "outputs": [],
      "stateMutability": "nonpayable",
      "type": "function"
    },
    {
      "inputs": [
        {
          "internalType": "address payable",
          "name": "_sender",
          "type": "address"
        },
        {
          "internalType": "address",
          "name": "_receiver",
          "type": "address"
        },
        {
          "internalType": "uint256",
          "name": "shipmentId",
          "type": "uint256"
        },
        {
          "internalType": "uint256",
          "name": "_price",
          "type": "uint256"
        }
      ],
      "name": "completeShipment",
      "outputs": [],
      "stateMutability": "payable",
      "type": "function"
    },
    {
      "inputs": [
        {
          "internalType": "address",
          "name": "_receiver",
          "type": "address"
        },
        {
          "internalType": "uint256",
          "name": "_pickupTime",
          "type": "uint256"
        },
        {
          "internalType": "uint256",
          "name": "_distnce",
          "type": "uint256"
        },
        {
          "internalType": "uint256",
          "name": "_price",
          "type": "uint256"
        },
        {
          "internalType": "uint256[]",
          "name": "products",
          "type": "uint256[]"
        }
      ],
      "name": "createShipment",
      "outputs": [],
      "stateMutability": "nonpayable",
      "type": "function"
    },
    {
      "inputs": [
        {
          "internalType": "address",
          "name": "",
          "type": "address"
        },
        {
          "internalType": "uint256",
          "name": "",
          "type": "uint256"
        }
      ],
      "name": "dilieverShipments",
      "outputs": [
        {
          "internalType": "uint256",
          "name": "id",
          "type": "uint256"
        },
        {
          "internalType": "address",
          "name": "sender",
          "type": "address"
        },
        {
          "internalType": "address",
          "name": "receiver",
          "type": "address"
        },
        {
          "internalType": "uint256",
          "name": "pickupTime",
          "type": "uint256"
        },
        {
          "internalType": "uint256",
          "name": "deliveryTime",
          "type": "uint256"
        },
        {
          "internalType": "uint256",
          "name": "distance",
          "type": "uint256"
        },
        {
          "internalType": "uint256",
          "name": "price",
          "type": "uint256"
        },
        {
          "internalType": "enum Tracking.ShipmentStatus",
          "name": "status",
          "type": "uint8"
        },
        {
          "internalType": "bool",
          "name": "isPaid",
          "type": "bool"
        }
      ],
      "stateMutability": "view",
      "type": "function"
    },
    {
      "inputs": [],
      "name": "getAllDilieverTransactions",
      "outputs": [
        {
          "components": [
            {
              "internalType": "uint256",
              "name": "id",
              "type": "uint256"
            },
            {
              "internalType": "address",
              "name": "sender",
              "type": "address"
            },
            {
              "internalType": "address",
              "name": "receiver",
              "type": "address"
            },
            {
              "internalType": "uint256",
              "name": "pickupTime",
              "type": "uint256"
            },
            {
              "internalType": "uint256",
              "name": "deliveryTime",
              "type": "uint256"
            },
            {
              "internalType": "uint256",
              "name": "distance",
              "type": "uint256"
            },
            {
              "internalType": "uint256",
              "name": "price",
              "type": "uint256"
            },
            {
              "internalType": "uint256[]",
              "name": "products",
              "type": "uint256[]"
            },
            {
              "internalType": "enum Tracking.ShipmentStatus",
              "name": "status",
              "type": "uint8"
            },
            {
              "internalType": "bool",
              "name": "isPaid",
              "type": "bool"
            }
          ],
          "internalType": "struct Tracking.Shipment[]",
          "name": "",
          "type": "tuple[]"
        }
      ],
      "stateMutability": "view",
      "type": "function"
    },
    {
      "inputs": [],
      "name": "getAllDilieverTransactionsLength",
      "outputs": [
        {
          "internalType": "uint256",
          "name": "",
          "type": "uint256"
        }
      ],
      "stateMutability": "view",
      "type": "function"
    },
    {
      "inputs": [],
      "name": "getAllReceiveTransactions",
      "outputs": [
        {
          "components": [
            {
              "internalType": "uint256",
              "name": "id",
              "type": "uint256"
            },
            {
              "internalType": "address",
              "name": "sender",
              "type": "address"
            },
            {
              "internalType": "address",
              "name": "receiver",
              "type": "address"
            },
            {
              "internalType": "uint256",
              "name": "pickupTime",
              "type": "uint256"
            },
            {
              "internalType": "uint256",
              "name": "deliveryTime",
              "type": "uint256"
            },
            {
              "internalType": "uint256",
              "name": "distance",
              "type": "uint256"
            },
            {
              "internalType": "uint256",
              "name": "price",
              "type": "uint256"
            },
            {
              "internalType": "uint256[]",
              "name": "products",
              "type": "uint256[]"
            },
            {
              "internalType": "enum Tracking.ShipmentStatus",
              "name": "status",
              "type": "uint8"
            },
            {
              "internalType": "bool",
              "name": "isPaid",
              "type": "bool"
            }
          ],
          "internalType": "struct Tracking.Shipment[]",
          "name": "",
          "type": "tuple[]"
        }
      ],
      "stateMutability": "view",
      "type": "function"
    },
    {
      "inputs": [],
      "name": "getAllReceiveTransactionsLength",
      "outputs": [
        {
          "internalType": "uint256",
          "name": "",
          "type": "uint256"
        }
      ],
      "stateMutability": "view",
      "type": "function"
    },
    {
      "inputs": [
        {
          "internalType": "address",
          "name": "",
          "type": "address"
        },
        {
          "internalType": "uint256",
          "name": "",
          "type": "uint256"
        }
      ],
      "name": "receiveShipments",
      "outputs": [
        {
          "internalType": "uint256",
          "name": "id",
          "type": "uint256"
        },
        {
          "internalType": "address",
          "name": "sender",
          "type": "address"
        },
        {
          "internalType": "address",
          "name": "receiver",
          "type": "address"
        },
        {
          "internalType": "uint256",
          "name": "pickupTime",
          "type": "uint256"
        },
        {
          "internalType": "uint256",
          "name": "deliveryTime",
          "type": "uint256"
        },
        {
          "internalType": "uint256",
          "name": "distance",
          "type": "uint256"
        },
        {
          "internalType": "uint256",
          "name": "price",
          "type": "uint256"
        },
        {
          "internalType": "enum Tracking.ShipmentStatus",
          "name": "status",
          "type": "uint8"
        },
        {
          "internalType": "bool",
          "name": "isPaid",
          "type": "bool"
        }
      ],
      "stateMutability": "view",
      "type": "function"
    },
    {
      "inputs": [],
      "name": "shipmenCount",
      "outputs": [
        {
          "internalType": "uint256",
          "name": "",
          "type": "uint256"
        }
      ],
      "stateMutability": "view",
      "type": "function"
    },
    {
      "inputs": [
        {
          "internalType": "address",
          "name": "_sender",
          "type": "address"
        },
        {
          "internalType": "address",
          "name": "_receiver",
          "type": "address"
        },
        {
          "internalType": "uint256",
          "name": "shipmentId",
          "type": "uint256"
        }
      ],
      "name": "startShipment",
      "outputs": [],
      "stateMutability": "nonpayable",
      "type": "function"
    }
  ],
  "bytecode": "0x608060405234801561001057600080fd5b5060006002819055506129b1806100286000396000f3fe60806040526004361061009c5760003560e01c80636a76893c116100645780636a76893c146101765780637c70bb09146101925780637e75ca70146101bd5780637ff5265d14610202578063c815388c1461022b578063ec1915c1146102545761009c565b806334084a53146100a15780633a1cf351146100cc5780633e338585146100f7578063573d155d14610122578063675e28561461014b575b600080fd5b3480156100ad57600080fd5b506100b6610299565b6040516100c39190611b99565b60405180910390f35b3480156100d857600080fd5b506100e161029f565b6040516100ee9190611b99565b60405180910390f35b34801561010357600080fd5b5061010c6102e9565b6040516101199190611b99565b60405180910390f35b34801561012e57600080fd5b5061014960048036038101906101449190611dab565b610332565b005b34801561015757600080fd5b506101606107bc565b60405161016d919061213d565b60405180910390f35b610190600480360381019061018b919061219d565b6109e5565b005b34801561019e57600080fd5b506101a7610f6c565b6040516101b4919061213d565b60405180910390f35b3480156101c957600080fd5b506101e460048036038101906101df9190612204565b611194565b6040516101f999989796959493929190612271565b60405180910390f35b34801561020e57600080fd5b50610229600480360381019061022491906122fe565b611259565b005b34801561023757600080fd5b50610252600480360381019061024d91906122fe565b611693565b005b34801561026057600080fd5b5061027b60048036038101906102769190612204565b611a51565b60405161029099989796959493929190612271565b60405180910390f35b60025481565b6000600160003373ffffffffffffffffffffffffffffffffffffffff1673ffffffffffffffffffffffffffffffffffffffff16815260200190815260200160002080549050905090565b60008060003373ffffffffffffffffffffffffffffffffffffffff1673ffffffffffffffffffffffffffffffffffffffff16815260200190815260200160002080549050905090565b60006040518061014001604052806000803373ffffffffffffffffffffffffffffffffffffffff1673ffffffffffffffffffffffffffffffffffffffff1681526020019081526020016000208054905081526020013373ffffffffffffffffffffffffffffffffffffffff1681526020018773ffffffffffffffffffffffffffffffffffffffff16815260200186815260200160008152602001858152602001848152602001838152602001600060038111156103f2576103f1611f3b565b5b81526020016000151581525090506000803373ffffffffffffffffffffffffffffffffffffffff1673ffffffffffffffffffffffffffffffffffffffff1681526020019081526020016000208190806001815401808255809150506001900390600052602060002090600902016000909190919091506000820151816000015560208201518160010160006101000a81548173ffffffffffffffffffffffffffffffffffffffff021916908373ffffffffffffffffffffffffffffffffffffffff16021790555060408201518160020160006101000a81548173ffffffffffffffffffffffffffffffffffffffff021916908373ffffffffffffffffffffffffffffffffffffffff160217905550606082015181600301556080820151816004015560a0820151816005015560c0820151816006015560e0820151816007019080519060200190610544929190611b16565b506101008201518160080160006101000a81548160ff0219169083600381111561057157610570611f3b565b5b02179055506101208201518160080160016101000a81548160ff0219169083151502179055505050600160008773ffffffffffffffffffffffffffffffffffffffff1673ffffffffffffffffffffffffffffffffffffffff1681526020019081526020016000208190806001815401808255809150506001900390600052602060002090600902016000909190919091506000820151816000015560208201518160010160006101000a81548173ffffffffffffffffffffffffffffffffffffffff021916908373ffffffffffffffffffffffffffffffffffffffff16021790555060408201518160020160006101000a81548173ffffffffffffffffffffffffffffffffffffffff021916908373ffffffffffffffffffffffffffffffffffffffff160217905550606082015181600301556080820151816004015560a0820151816005015560c0820151816006015560e08201518160070190805190602001906106de929190611b16565b506101008201518160080160006101000a81548160ff0219169083600381111561070b5761070a611f3b565b5b02179055506101208201518160080160016101000a81548160ff02191690831515021790555050506002600081548092919061074690612380565b91905055508573ffffffffffffffffffffffffffffffffffffffff163373ffffffffffffffffffffffffffffffffffffffff167f5001b34ecf2db5b7bbeddcbbe761ec9ecadcc7638018b98ce3e24995b0e946b68787876040516107ac939291906123c8565b60405180910390a3505050505050565b6060600160003373ffffffffffffffffffffffffffffffffffffffff1673ffffffffffffffffffffffffffffffffffffffff168152602001908152602001600020805480602002602001604051908101604052809291908181526020016000905b828210156109dc578382906000526020600020906009020160405180610140016040529081600082015481526020016001820160009054906101000a900473ffffffffffffffffffffffffffffffffffffffff1673ffffffffffffffffffffffffffffffffffffffff1673ffffffffffffffffffffffffffffffffffffffff1681526020016002820160009054906101000a900473ffffffffffffffffffffffffffffffffffffffff1673ffffffffffffffffffffffffffffffffffffffff1673ffffffffffffffffffffffffffffffffffffffff168152602001600382015481526020016004820154815260200160058201548152602001600682015481526020016007820180548060200260200160405190810160405280929190818152602001828054801561096e57602002820191906000526020600020905b81548152602001906001019080831161095a575b505050505081526020016008820160009054906101000a900460ff16600381111561099c5761099b611f3b565b5b60038111156109ae576109ad611f3b565b5b81526020016008820160019054906101000a900460ff1615151515815250508152602001906001019061081d565b50505050905090565b60008060008673ffffffffffffffffffffffffffffffffffffffff1673ffffffffffffffffffffffffffffffffffffffff1681526020019081526020016000208381548110610a3757610a366123ff565b5b90600052602060002090600902019050600081905060005b600160003373ffffffffffffffffffffffffffffffffffffffff1673ffffffffffffffffffffffffffffffffffffffff16815260200190815260200160002080549050811015610b7f578260000154600160003373ffffffffffffffffffffffffffffffffffffffff1673ffffffffffffffffffffffffffffffffffffffff1681526020019081526020016000208281548110610aef57610aee6123ff565b5b90600052602060002090600902016000015403610b6c57600160003373ffffffffffffffffffffffffffffffffffffffff1673ffffffffffffffffffffffffffffffffffffffff1681526020019081526020016000208181548110610b5757610b566123ff565b5b90600052602060002090600902019150610b7f565b8080610b7790612380565b915050610a4f565b5082341015610bc3576040517f08c379a0000000000000000000000000000000000000000000000000000000008152600401610bba906124b1565b60405180910390fd5b3373ffffffffffffffffffffffffffffffffffffffff168160020160009054906101000a900473ffffffffffffffffffffffffffffffffffffffff1673ffffffffffffffffffffffffffffffffffffffff1614610c55576040517f08c379a0000000000000000000000000000000000000000000000000000000008152600401610c4c9061251d565b60405180910390fd5b60026003811115610c6957610c68611f3b565b5b8160080160009054906101000a900460ff166003811115610c8d57610c8c611f3b565b5b14610ccd576040517f08c379a0000000000000000000000000000000000000000000000000000000008152600401610cc490612589565b60405180910390fd5b600380811115610ce057610cdf611f3b565b5b8160080160009054906101000a900460ff166003811115610d0457610d03611f3b565b5b03610d44576040517f08c379a0000000000000000000000000000000000000000000000000000000008152600401610d3b906125f5565b60405180910390fd5b60016003811115610d5857610d57611f3b565b5b8160080160009054906101000a900460ff166003811115610d7c57610d7b611f3b565b5b03610dbc576040517f08c379a0000000000000000000000000000000000000000000000000000000008152600401610db390612687565b60405180910390fd5b8573ffffffffffffffffffffffffffffffffffffffff166108fc349081150290604051600060405180830381858888f19350505050158015610e02573d6000803e3d6000fd5b5060038160080160006101000a81548160ff02191690836003811115610e2b57610e2a611f3b565b5b021790555060038260080160006101000a81548160ff02191690836003811115610e5857610e57611f3b565b5b021790555042816004018190555042826004018190555060008160060154905060018260080160016101000a81548160ff0219169083151502179055508573ffffffffffffffffffffffffffffffffffffffff168773ffffffffffffffffffffffffffffffffffffffff167f3746ccceb54f44c9b0ee0120e596168d07ec9f6ca303cfdd9810d3b2e2686a2e8460040154604051610ef69190611b99565b60405180910390a38573ffffffffffffffffffffffffffffffffffffffff168773ffffffffffffffffffffffffffffffffffffffff167f2b6f2473aebafaf8d0889669490135928ec4454d2e29a103fd39693bbca6aef183604051610f5b9190611b99565b60405180910390a350505050505050565b60606000803373ffffffffffffffffffffffffffffffffffffffff1673ffffffffffffffffffffffffffffffffffffffff168152602001908152602001600020805480602002602001604051908101604052809291908181526020016000905b8282101561118b578382906000526020600020906009020160405180610140016040529081600082015481526020016001820160009054906101000a900473ffffffffffffffffffffffffffffffffffffffff1673ffffffffffffffffffffffffffffffffffffffff1673ffffffffffffffffffffffffffffffffffffffff1681526020016002820160009054906101000a900473ffffffffffffffffffffffffffffffffffffffff1673ffffffffffffffffffffffffffffffffffffffff1673ffffffffffffffffffffffffffffffffffffffff168152602001600382015481526020016004820154815260200160058201548152602001600682015481526020016007820180548060200260200160405190810160405280929190818152602001828054801561111d57602002820191906000526020600020905b815481526020019060010190808311611109575b505050505081526020016008820160009054906101000a900460ff16600381111561114b5761114a611f3b565b5b600381111561115d5761115c611f3b565b5b81526020016008820160019054906101000a900460ff16151515158152505081526020019060010190610fcc565b50505050905090565b600160205281600052604060002081815481106111b057600080fd5b9060005260206000209060090201600091509150508060000154908060010160009054906101000a900473ffffffffffffffffffffffffffffffffffffffff16908060020160009054906101000a900473ffffffffffffffffffffffffffffffffffffffff16908060030154908060040154908060050154908060060154908060080160009054906101000a900460ff16908060080160019054906101000a900460ff16905089565b60008060008573ffffffffffffffffffffffffffffffffffffffff1673ffffffffffffffffffffffffffffffffffffffff16815260200190815260200160002082815481106112ab576112aa6123ff565b5b9060005260206000209060090201905060008190508473ffffffffffffffffffffffffffffffffffffffff163373ffffffffffffffffffffffffffffffffffffffff161461132e576040517f08c379a000000000000000000000000000000000000000000000000000000000815260040161132590612719565b60405180910390fd5b60005b600160008673ffffffffffffffffffffffffffffffffffffffff1673ffffffffffffffffffffffffffffffffffffffff16815260200190815260200160002080549050811015611461578260000154600160008773ffffffffffffffffffffffffffffffffffffffff1673ffffffffffffffffffffffffffffffffffffffff16815260200190815260200160002082815481106113d1576113d06123ff565b5b9060005260206000209060090201600001540361144e57600160008673ffffffffffffffffffffffffffffffffffffffff1673ffffffffffffffffffffffffffffffffffffffff1681526020019081526020016000208181548110611439576114386123ff565b5b90600052602060002090600902019150611461565b808061145990612380565b915050611331565b506002600381111561147657611475611f3b565b5b8260080160009054906101000a900460ff16600381111561149a57611499611f3b565b5b036114da576040517f08c379a00000000000000000000000000000000000000000000000000000000081526004016114d190612785565b60405180910390fd5b600160038111156114ee576114ed611f3b565b5b8260080160009054906101000a900460ff16600381111561151257611511611f3b565b5b03611552576040517f08c379a0000000000000000000000000000000000000000000000000000000008152600401611549906127f1565b60405180910390fd5b60038081111561156557611564611f3b565b5b8260080160009054906101000a900460ff16600381111561158957611588611f3b565b5b036115c9576040517f08c379a00000000000000000000000000000000000000000000000000000000081526004016115c09061285d565b60405180910390fd5b60028260080160006101000a81548160ff021916908360038111156115f1576115f0611f3b565b5b021790555060028160080160006101000a81548160ff0219169083600381111561161e5761161d611f3b565b5b02179055508373ffffffffffffffffffffffffffffffffffffffff168573ffffffffffffffffffffffffffffffffffffffff167faafab9f94340179ff9cefd29621e1772a4b8efab8023163838f1b0a8f6ce5df584600301546040516116849190611b99565b60405180910390a35050505050565b60008060008573ffffffffffffffffffffffffffffffffffffffff1673ffffffffffffffffffffffffffffffffffffffff16815260200190815260200160002082815481106116e5576116e46123ff565b5b9060005260206000209060090201905060008190508473ffffffffffffffffffffffffffffffffffffffff163373ffffffffffffffffffffffffffffffffffffffff1614611768576040517f08c379a000000000000000000000000000000000000000000000000000000000815260040161175f90612719565b60405180910390fd5b60005b600160008673ffffffffffffffffffffffffffffffffffffffff1673ffffffffffffffffffffffffffffffffffffffff1681526020019081526020016000208054905081101561189b578260000154600160008773ffffffffffffffffffffffffffffffffffffffff1673ffffffffffffffffffffffffffffffffffffffff168152602001908152602001600020828154811061180b5761180a6123ff565b5b9060005260206000209060090201600001540361188857600160008673ffffffffffffffffffffffffffffffffffffffff1673ffffffffffffffffffffffffffffffffffffffff1681526020019081526020016000208181548110611873576118726123ff565b5b9060005260206000209060090201915061189b565b808061189390612380565b91505061176b565b50600160038111156118b0576118af611f3b565b5b8260080160009054906101000a900460ff1660038111156118d4576118d3611f3b565b5b03611914576040517f08c379a000000000000000000000000000000000000000000000000000000000815260040161190b906128c9565b60405180910390fd5b60038081111561192757611926611f3b565b5b8260080160009054906101000a900460ff16600381111561194b5761194a611f3b565b5b0361198b576040517f08c379a00000000000000000000000000000000000000000000000000000000081526004016119829061295b565b60405180910390fd5b60018260080160006101000a81548160ff021916908360038111156119b3576119b2611f3b565b5b021790555060018160080160006101000a81548160ff021916908360038111156119e0576119df611f3b565b5b02179055508373ffffffffffffffffffffffffffffffffffffffff163373ffffffffffffffffffffffffffffffffffffffff167f5375bf5fc595dc7d2f9d33f14ecf814a7cc74218942f4ca9ef8b1036ee1d21f285604051611a429190611b99565b60405180910390a35050505050565b60006020528160005260406000208181548110611a6d57600080fd5b9060005260206000209060090201600091509150508060000154908060010160009054906101000a900473ffffffffffffffffffffffffffffffffffffffff16908060020160009054906101000a900473ffffffffffffffffffffffffffffffffffffffff16908060030154908060040154908060050154908060060154908060080160009054906101000a900460ff16908060080160019054906101000a900460ff16905089565b828054828255906000526020600020908101928215611b52579160200282015b82811115611b51578251825591602001919060010190611b36565b5b509050611b5f9190611b63565b5090565b5b80821115611b7c576000816000905550600101611b64565b5090565b6000819050919050565b611b9381611b80565b82525050565b6000602082019050611bae6000830184611b8a565b92915050565b6000604051905090565b600080fd5b600080fd5b600073ffffffffffffffffffffffffffffffffffffffff82169050919050565b6000611bf382611bc8565b9050919050565b611c0381611be8565b8114611c0e57600080fd5b50565b600081359050611c2081611bfa565b92915050565b611c2f81611b80565b8114611c3a57600080fd5b50565b600081359050611c4c81611c26565b92915050565b600080fd5b6000601f19601f8301169050919050565b7f4e487b7100000000000000000000000000000000000000000000000000000000600052604160045260246000fd5b611ca082611c57565b810181811067ffffffffffffffff82111715611cbf57611cbe611c68565b5b80604052505050565b6000611cd2611bb4565b9050611cde8282611c97565b919050565b600067ffffffffffffffff821115611cfe57611cfd611c68565b5b602082029050602081019050919050565b600080fd5b6000611d27611d2284611ce3565b611cc8565b90508083825260208201905060208402830185811115611d4a57611d49611d0f565b5b835b81811015611d735780611d5f8882611c3d565b845260208401935050602081019050611d4c565b5050509392505050565b600082601f830112611d9257611d91611c52565b5b8135611da2848260208601611d14565b91505092915050565b600080600080600060a08688031215611dc757611dc6611bbe565b5b6000611dd588828901611c11565b9550506020611de688828901611c3d565b9450506040611df788828901611c3d565b9350506060611e0888828901611c3d565b925050608086013567ffffffffffffffff811115611e2957611e28611bc3565b5b611e3588828901611d7d565b9150509295509295909350565b600081519050919050565b600082825260208201905092915050565b6000819050602082019050919050565b611e7781611b80565b82525050565b611e8681611be8565b82525050565b600081519050919050565b600082825260208201905092915050565b6000819050602082019050919050565b6000611ec48383611e6e565b60208301905092915050565b6000602082019050919050565b6000611ee882611e8c565b611ef28185611e97565b9350611efd83611ea8565b8060005b83811015611f2e578151611f158882611eb8565b9750611f2083611ed0565b925050600181019050611f01565b5085935050505092915050565b7f4e487b7100000000000000000000000000000000000000000000000000000000600052602160045260246000fd5b60048110611f7b57611f7a611f3b565b5b50565b6000819050611f8c82611f6a565b919050565b6000611f9c82611f7e565b9050919050565b611fac81611f91565b82525050565b60008115159050919050565b611fc781611fb2565b82525050565b600061014083016000830151611fe66000860182611e6e565b506020830151611ff96020860182611e7d565b50604083015161200c6040860182611e7d565b50606083015161201f6060860182611e6e565b5060808301516120326080860182611e6e565b5060a083015161204560a0860182611e6e565b5060c083015161205860c0860182611e6e565b5060e083015184820360e08601526120708282611edd565b915050610100830151612087610100860182611fa3565b5061012083015161209c610120860182611fbe565b508091505092915050565b60006120b38383611fcd565b905092915050565b6000602082019050919050565b60006120d382611e42565b6120dd8185611e4d565b9350836020820285016120ef85611e5e565b8060005b8581101561212b578484038952815161210c85826120a7565b9450612117836120bb565b925060208a019950506001810190506120f3565b50829750879550505050505092915050565b6000602082019050818103600083015261215781846120c8565b905092915050565b600061216a82611bc8565b9050919050565b61217a8161215f565b811461218557600080fd5b50565b60008135905061219781612171565b92915050565b600080600080608085870312156121b7576121b6611bbe565b5b60006121c587828801612188565b94505060206121d687828801611c11565b93505060406121e787828801611c3d565b92505060606121f887828801611c3d565b91505092959194509250565b6000806040838503121561221b5761221a611bbe565b5b600061222985828601611c11565b925050602061223a85828601611c3d565b9150509250929050565b61224d81611be8565b82525050565b61225c81611f91565b82525050565b61226b81611fb2565b82525050565b600061012082019050612287600083018c611b8a565b612294602083018b612244565b6122a1604083018a612244565b6122ae6060830189611b8a565b6122bb6080830188611b8a565b6122c860a0830187611b8a565b6122d560c0830186611b8a565b6122e260e0830185612253565b6122f0610100830184612262565b9a9950505050505050505050565b60008060006060848603121561231757612316611bbe565b5b600061232586828701611c11565b935050602061233686828701611c11565b925050604061234786828701611c3d565b9150509250925092565b7f4e487b7100000000000000000000000000000000000000000000000000000000600052601160045260246000fd5b600061238b82611b80565b91507fffffffffffffffffffffffffffffffffffffffffffffffffffffffffffffffff82036123bd576123bc612351565b5b600182019050919050565b60006060820190506123dd6000830186611b8a565b6123ea6020830185611b8a565b6123f76040830184611b8a565b949350505050565b7f4e487b7100000000000000000000000000000000000000000000000000000000600052603260045260246000fd5b600082825260208201905092915050565b7f5061796d656e7420616d6f756e74206d757374206d617463682074686520707260008201527f6963652e00000000000000000000000000000000000000000000000000000000602082015250565b600061249b60248361242e565b91506124a68261243f565b604082019050919050565b600060208201905081810360008301526124ca8161248e565b9050919050565b7f496e76616c69642072656365697665722e000000000000000000000000000000600082015250565b600061250760118361242e565b9150612512826124d1565b602082019050919050565b60006020820190508181036000830152612536816124fa565b9050919050565b7f536869706d656e74206e6f7420696e207472616e7369742e0000000000000000600082015250565b600061257360188361242e565b915061257e8261253d565b602082019050919050565b600060208201905081810360008301526125a281612566565b9050919050565b7f536869706d656e7420616c72656164792064696c696576657265640000000000600082015250565b60006125df601b8361242e565b91506125ea826125a9565b602082019050919050565b6000602082019050818103600083015261260e816125d2565b9050919050565b7f536869706d656e742063616e63656c6c65642063616e6e6f742072656365697660008201527f65206e6f77000000000000000000000000000000000000000000000000000000602082015250565b600061267160258361242e565b915061267c82612615565b604082019050919050565b600060208201905081810360008301526126a081612664565b9050919050565b7f796f7520617265206e6f7420617574686f72206f662074686973207472616e7360008201527f616374696f6e0000000000000000000000000000000000000000000000000000602082015250565b600061270360268361242e565b915061270e826126a7565b604082019050919050565b60006020820190508181036000830152612732816126f6565b9050919050565b7f20536869706d656e7420616c726561647920696e207472616e7369742e000000600082015250565b600061276f601d8361242e565b915061277a82612739565b602082019050919050565b6000602082019050818103600083015261279e81612762565b9050919050565b7f20536869706d656e7420616c72656164792063616e63656c6c65642e00000000600082015250565b60006127db601c8361242e565b91506127e6826127a5565b602082019050919050565b6000602082019050818103600083015261280a816127ce565b9050919050565b7f20536869706d656e7420616c72656164792064696c696576657265642e000000600082015250565b6000612847601d8361242e565b915061285282612811565b602082019050919050565b600060208201905081810360008301526128768161283a565b9050919050565b7f536869706d656e7420697320616c72656164792063616e63656c6c6564000000600082015250565b60006128b3601d8361242e565b91506128be8261287d565b602082019050919050565b600060208201905081810360008301526128e2816128a6565b9050919050565b7f50726f6475637420697320616c72656164792064696c6965766572656420636160008201527f6e6e6f742063616e63656c6c6564206e6f770000000000000000000000000000602082015250565b600061294560328361242e565b9150612950826128e9565b604082019050919050565b6000602082019050818103600083015261297481612938565b905091905056fea26469706673582212208e0a67de85085a2f6393263e35d9c2d6238213dffd3071add78d49f0113d1a1564736f6c63430008120033",
  "linkReferences": {},
  "deployedLinkReferences": {}
}