{
  "_format": "hh-sol-artifact-1",
  "contractName": "Tracking",
  "sourceName": "contracts/Tracking.sol",
  "abi": [
    {
      "inputs": [],
      "stateMutability": "nonpayable",
      "type": "constructor"
    },
    {
      "anonymous": false,
      "inputs": [
        {
          "indexed": true,
          "internalType": "address",
          "name": "sender",
          "type": "address"
        },
        {
          "indexed": true,
          "internalType": "address",
          "name": "receiver",
          "type": "address"
        },
        {
          "indexed": false,
          "internalType": "uint256",
          "name": "shipmentId",
          "type": "uint256"
        }
      ],
      "name": "ShipmentCancelled",
      "type": "event"
    },
    {
      "anonymous": false,
      "inputs": [
        {
          "indexed": true,
          "internalType": "address",
          "name": "sender",
          "type": "address"
        },
        {
          "indexed": true,
          "internalType": "address",
          "name": "receiver",
          "type": "address"
        },
        {
          "indexed": false,
          "internalType": "uint256",
          "name": "pickupTime",
          "type": "uint256"
        },
        {
          "indexed": false,
          "internalType": "uint256",
          "name": "distance",
          "type": "uint256"
        },
        {
          "indexed": false,
          "internalType": "uint256",
          "name": "price",
          "type": "uint256"
        }
      ],
      "name": "ShipmentCreated",
      "type": "event"
    },
    {
      "anonymous": false,
      "inputs": [
        {
          "indexed": true,
          "internalType": "address",
          "name": "sender",
          "type": "address"
        },
        {
          "indexed": true,
          "internalType": "address",
          "name": "receiver",
          "type": "address"
        },
        {
          "indexed": false,
          "internalType": "uint256",
          "name": "deliveryTime",
          "type": "uint256"
        }
      ],
      "name": "ShipmentDelivered",
      "type": "event"
    },
    {
      "anonymous": false,
      "inputs": [
        {
          "indexed": true,
          "internalType": "address",
          "name": "sender",
          "type": "address"
        },
        {
          "indexed": true,
          "internalType": "address",
          "name": "receiver",
          "type": "address"
        },
        {
          "indexed": false,
          "internalType": "uint256",
          "name": "pickupTime",
          "type": "uint256"
        }
      ],
      "name": "ShipmentInTransit",
      "type": "event"
    },
    {
      "anonymous": false,
      "inputs": [
        {
          "indexed": true,
          "internalType": "address",
          "name": "sender",
          "type": "address"
        },
        {
          "indexed": true,
          "internalType": "address",
          "name": "receiver",
          "type": "address"
        },
        {
          "indexed": false,
          "internalType": "uint256",
          "name": "amount",
          "type": "uint256"
        }
      ],
      "name": "ShipmentPaid",
      "type": "event"
    },
    {
      "inputs": [
        {
          "internalType": "address",
          "name": "_sender",
          "type": "address"
        },
        {
          "internalType": "address",
          "name": "_receiver",
          "type": "address"
        },
        {
          "internalType": "uint256",
          "name": "shipmentId",
          "type": "uint256"
        }
      ],
      "name": "cancelShipment",
      "outputs": [],
      "stateMutability": "nonpayable",
      "type": "function"
    },
    {
      "inputs": [
        {
          "internalType": "address payable",
          "name": "_sender",
          "type": "address"
        },
        {
          "internalType": "address",
          "name": "_receiver",
          "type": "address"
        },
        {
          "internalType": "uint256",
          "name": "shipmentId",
          "type": "uint256"
        },
        {
          "internalType": "uint256",
          "name": "_price",
          "type": "uint256"
        }
      ],
      "name": "completeShipment",
      "outputs": [],
      "stateMutability": "payable",
      "type": "function"
    },
    {
      "inputs": [
        {
          "internalType": "address",
          "name": "_receiver",
          "type": "address"
        },
        {
          "internalType": "uint256",
          "name": "_pickupTime",
          "type": "uint256"
        },
        {
          "internalType": "uint256",
          "name": "_distnce",
          "type": "uint256"
        },
        {
          "internalType": "uint256",
          "name": "_price",
          "type": "uint256"
        },
        {
          "internalType": "uint256[]",
          "name": "products",
          "type": "uint256[]"
        },
        {
          "components": [
            {
              "internalType": "uint256",
              "name": "quantity",
              "type": "uint256"
            },
            {
              "internalType": "uint256",
              "name": "productId",
              "type": "uint256"
            }
          ],
          "internalType": "struct Tracking.Product[]",
          "name": "productData",
          "type": "tuple[]"
        }
      ],
      "name": "createShipment",
      "outputs": [],
      "stateMutability": "nonpayable",
      "type": "function"
    },
    {
      "inputs": [
        {
          "internalType": "address",
          "name": "",
          "type": "address"
        },
        {
          "internalType": "uint256",
          "name": "",
          "type": "uint256"
        }
      ],
      "name": "dilieverShipments",
      "outputs": [
        {
          "internalType": "uint256",
          "name": "id",
          "type": "uint256"
        },
        {
          "internalType": "address",
          "name": "sender",
          "type": "address"
        },
        {
          "internalType": "address",
          "name": "receiver",
          "type": "address"
        },
        {
          "internalType": "uint256",
          "name": "pickupTime",
          "type": "uint256"
        },
        {
          "internalType": "uint256",
          "name": "deliveryTime",
          "type": "uint256"
        },
        {
          "internalType": "uint256",
          "name": "distance",
          "type": "uint256"
        },
        {
          "internalType": "uint256",
          "name": "price",
          "type": "uint256"
        },
        {
          "internalType": "enum Tracking.ShipmentStatus",
          "name": "status",
          "type": "uint8"
        },
        {
          "internalType": "bool",
          "name": "isPaid",
          "type": "bool"
        }
      ],
      "stateMutability": "view",
      "type": "function"
    },
    {
      "inputs": [],
      "name": "getAllDilieverTransactions",
      "outputs": [
        {
          "components": [
            {
              "internalType": "uint256",
              "name": "id",
              "type": "uint256"
            },
            {
              "internalType": "address",
              "name": "sender",
              "type": "address"
            },
            {
              "internalType": "address",
              "name": "receiver",
              "type": "address"
            },
            {
              "internalType": "uint256",
              "name": "pickupTime",
              "type": "uint256"
            },
            {
              "internalType": "uint256",
              "name": "deliveryTime",
              "type": "uint256"
            },
            {
              "internalType": "uint256",
              "name": "distance",
              "type": "uint256"
            },
            {
              "internalType": "uint256",
              "name": "price",
              "type": "uint256"
            },
            {
              "internalType": "uint256[]",
              "name": "products",
              "type": "uint256[]"
            },
            {
              "internalType": "enum Tracking.ShipmentStatus",
              "name": "status",
              "type": "uint8"
            },
            {
              "internalType": "bool",
              "name": "isPaid",
              "type": "bool"
            }
          ],
          "internalType": "struct Tracking.Shipment[]",
          "name": "",
          "type": "tuple[]"
        }
      ],
      "stateMutability": "view",
      "type": "function"
    },
    {
      "inputs": [],
      "name": "getAllDilieverTransactionsLength",
      "outputs": [
        {
          "internalType": "uint256",
          "name": "",
          "type": "uint256"
        }
      ],
      "stateMutability": "view",
      "type": "function"
    },
    {
      "inputs": [],
      "name": "getAllReceiveTransactions",
      "outputs": [
        {
          "components": [
            {
              "internalType": "uint256",
              "name": "id",
              "type": "uint256"
            },
            {
              "internalType": "address",
              "name": "sender",
              "type": "address"
            },
            {
              "internalType": "address",
              "name": "receiver",
              "type": "address"
            },
            {
              "internalType": "uint256",
              "name": "pickupTime",
              "type": "uint256"
            },
            {
              "internalType": "uint256",
              "name": "deliveryTime",
              "type": "uint256"
            },
            {
              "internalType": "uint256",
              "name": "distance",
              "type": "uint256"
            },
            {
              "internalType": "uint256",
              "name": "price",
              "type": "uint256"
            },
            {
              "internalType": "uint256[]",
              "name": "products",
              "type": "uint256[]"
            },
            {
              "internalType": "enum Tracking.ShipmentStatus",
              "name": "status",
              "type": "uint8"
            },
            {
              "internalType": "bool",
              "name": "isPaid",
              "type": "bool"
            }
          ],
          "internalType": "struct Tracking.Shipment[]",
          "name": "",
          "type": "tuple[]"
        }
      ],
      "stateMutability": "view",
      "type": "function"
    },
    {
      "inputs": [],
      "name": "getAllReceiveTransactionsLength",
      "outputs": [
        {
          "internalType": "uint256",
          "name": "",
          "type": "uint256"
        }
      ],
      "stateMutability": "view",
      "type": "function"
    },
    {
      "inputs": [
        {
          "internalType": "uint256",
          "name": "productId",
          "type": "uint256"
        }
      ],
      "name": "getProductData",
      "outputs": [
        {
          "components": [
            {
              "internalType": "uint256",
              "name": "quantity",
              "type": "uint256"
            },
            {
              "internalType": "uint256",
              "name": "productId",
              "type": "uint256"
            }
          ],
          "internalType": "struct Tracking.Product",
          "name": "",
          "type": "tuple"
        }
      ],
      "stateMutability": "view",
      "type": "function"
    },
    {
      "inputs": [
        {
          "internalType": "uint256",
          "name": "productId",
          "type": "uint256"
        }
      ],
      "name": "getProductHistory",
      "outputs": [
        {
          "internalType": "address[]",
          "name": "",
          "type": "address[]"
        }
      ],
      "stateMutability": "view",
      "type": "function"
    },
    {
      "inputs": [
        {
          "internalType": "uint256",
          "name": "",
          "type": "uint256"
        },
        {
          "internalType": "uint256",
          "name": "",
          "type": "uint256"
        }
      ],
      "name": "productHistory",
      "outputs": [
        {
          "internalType": "address",
          "name": "",
          "type": "address"
        }
      ],
      "stateMutability": "view",
      "type": "function"
    },
    {
      "inputs": [
        {
          "internalType": "uint256",
          "name": "",
          "type": "uint256"
        }
      ],
      "name": "productIdMapping",
      "outputs": [
        {
          "internalType": "uint256",
          "name": "quantity",
          "type": "uint256"
        },
        {
          "internalType": "uint256",
          "name": "productId",
          "type": "uint256"
        }
      ],
      "stateMutability": "view",
      "type": "function"
    },
    {
      "inputs": [
        {
          "internalType": "address",
          "name": "",
          "type": "address"
        },
        {
          "internalType": "uint256",
          "name": "",
          "type": "uint256"
        }
      ],
      "name": "receiveShipments",
      "outputs": [
        {
          "internalType": "uint256",
          "name": "id",
          "type": "uint256"
        },
        {
          "internalType": "address",
          "name": "sender",
          "type": "address"
        },
        {
          "internalType": "address",
          "name": "receiver",
          "type": "address"
        },
        {
          "internalType": "uint256",
          "name": "pickupTime",
          "type": "uint256"
        },
        {
          "internalType": "uint256",
          "name": "deliveryTime",
          "type": "uint256"
        },
        {
          "internalType": "uint256",
          "name": "distance",
          "type": "uint256"
        },
        {
          "internalType": "uint256",
          "name": "price",
          "type": "uint256"
        },
        {
          "internalType": "enum Tracking.ShipmentStatus",
          "name": "status",
          "type": "uint8"
        },
        {
          "internalType": "bool",
          "name": "isPaid",
          "type": "bool"
        }
      ],
      "stateMutability": "view",
      "type": "function"
    },
    {
      "inputs": [],
      "name": "shipmenCount",
      "outputs": [
        {
          "internalType": "uint256",
          "name": "",
          "type": "uint256"
        }
      ],
      "stateMutability": "view",
      "type": "function"
    },
    {
      "inputs": [
        {
          "internalType": "address",
          "name": "_sender",
          "type": "address"
        },
        {
          "internalType": "address",
          "name": "_receiver",
          "type": "address"
        },
        {
          "internalType": "uint256",
          "name": "shipmentId",
          "type": "uint256"
        }
      ],
      "name": "startShipment",
      "outputs": [],
      "stateMutability": "nonpayable",
      "type": "function"
    }
  ],
  "bytecode": "0x608060405234801561001057600080fd5b506000600481905550613140806100286000396000f3fe6080604052600436106100e85760003560e01c80636a76893c1161008a578063817f131811610059578063817f1318146102f1578063c815388c1461032f578063d6d0be9f14610358578063ec1915c114610395576100e8565b80636a76893c1461023c5780637c70bb09146102585780637e75ca70146102835780637ff5265d146102c8576100e8565b80633a7d2376116100c65780633a7d23761461016c5780633e338585146101a957806357a096a1146101d4578063675e285614610211576100e8565b806334084a53146100ed5780633604e24f146101185780633a1cf35114610141575b600080fd5b3480156100f957600080fd5b506101026103da565b60405161010f9190612016565b60405180910390f35b34801561012457600080fd5b5061013f600480360381019061013a9190612340565b6103e0565b005b34801561014d57600080fd5b50610156610978565b6040516101639190612016565b60405180910390f35b34801561017857600080fd5b50610193600480360381019061018e9190612405565b6109c2565b6040516101a09190612454565b60405180910390f35b3480156101b557600080fd5b506101be610a10565b6040516101cb9190612016565b60405180910390f35b3480156101e057600080fd5b506101fb60048036038101906101f6919061246f565b610a59565b604051610208919061255a565b60405180910390f35b34801561021d57600080fd5b50610226610afa565b6040516102339190612868565b60405180910390f35b610256600480360381019061025191906128c8565b610d23565b005b34801561026457600080fd5b5061026d611364565b60405161027a9190612868565b60405180910390f35b34801561028f57600080fd5b506102aa60048036038101906102a5919061292f565b61158c565b6040516102bf9998979695949392919061298d565b60405180910390f35b3480156102d457600080fd5b506102ef60048036038101906102ea9190612a1a565b611651565b005b3480156102fd57600080fd5b506103186004803603810190610313919061246f565b611a8b565b604051610326929190612a6d565b60405180910390f35b34801561033b57600080fd5b5061035660048036038101906103519190612a1a565b611aaf565b005b34801561036457600080fd5b5061037f600480360381019061037a919061246f565b611e6d565b60405161038c9190612ac5565b60405180910390f35b3480156103a157600080fd5b506103bc60048036038101906103b7919061292f565b611eb4565b6040516103d19998979695949392919061298d565b60405180910390f35b60045481565b60006040518061014001604052806000803373ffffffffffffffffffffffffffffffffffffffff1673ffffffffffffffffffffffffffffffffffffffff1681526020019081526020016000208054905081526020013373ffffffffffffffffffffffffffffffffffffffff1681526020018873ffffffffffffffffffffffffffffffffffffffff16815260200187815260200160008152602001868152602001858152602001848152602001600060038111156104a05761049f612666565b5b81526020016000151581525090506000803373ffffffffffffffffffffffffffffffffffffffff1673ffffffffffffffffffffffffffffffffffffffff1681526020019081526020016000208190806001815401808255809150506001900390600052602060002090600902016000909190919091506000820151816000015560208201518160010160006101000a81548173ffffffffffffffffffffffffffffffffffffffff021916908373ffffffffffffffffffffffffffffffffffffffff16021790555060408201518160020160006101000a81548173ffffffffffffffffffffffffffffffffffffffff021916908373ffffffffffffffffffffffffffffffffffffffff160217905550606082015181600301556080820151816004015560a0820151816005015560c0820151816006015560e08201518160070190805190602001906105f2929190611f79565b506101008201518160080160006101000a81548160ff0219169083600381111561061f5761061e612666565b5b02179055506101208201518160080160016101000a81548160ff0219169083151502179055505050600160008873ffffffffffffffffffffffffffffffffffffffff1673ffffffffffffffffffffffffffffffffffffffff1681526020019081526020016000208190806001815401808255809150506001900390600052602060002090600902016000909190919091506000820151816000015560208201518160010160006101000a81548173ffffffffffffffffffffffffffffffffffffffff021916908373ffffffffffffffffffffffffffffffffffffffff16021790555060408201518160020160006101000a81548173ffffffffffffffffffffffffffffffffffffffff021916908373ffffffffffffffffffffffffffffffffffffffff160217905550606082015181600301556080820151816004015560a0820151816005015560c0820151816006015560e082015181600701908051906020019061078c929190611f79565b506101008201518160080160006101000a81548160ff021916908360038111156107b9576107b8612666565b5b02179055506101208201518160080160016101000a81548160ff021916908315150217905550505060005b83518110156108ed576002600085838151811061080457610803612ae0565b5b60200260200101518152602001908152602001600020339080600181540180825580915050600190039060005260206000200160009091909190916101000a81548173ffffffffffffffffffffffffffffffffffffffff021916908373ffffffffffffffffffffffffffffffffffffffff16021790555082818151811061088e5761088d612ae0565b5b6020026020010151600360008684815181106108ad576108ac612ae0565b5b60200260200101518152602001908152602001600020600082015181600001556020820151816001015590505080806108e590612b3e565b9150506107e4565b506004600081548092919061090190612b3e565b91905055508673ffffffffffffffffffffffffffffffffffffffff163373ffffffffffffffffffffffffffffffffffffffff167f5001b34ecf2db5b7bbeddcbbe761ec9ecadcc7638018b98ce3e24995b0e946b688888860405161096793929190612b86565b60405180910390a350505050505050565b6000600160003373ffffffffffffffffffffffffffffffffffffffff1673ffffffffffffffffffffffffffffffffffffffff16815260200190815260200160002080549050905090565b600260205281600052604060002081815481106109de57600080fd5b906000526020600020016000915091509054906101000a900473ffffffffffffffffffffffffffffffffffffffff1681565b60008060003373ffffffffffffffffffffffffffffffffffffffff1673ffffffffffffffffffffffffffffffffffffffff16815260200190815260200160002080549050905090565b606060026000838152602001908152602001600020805480602002602001604051908101604052809291908181526020018280548015610aee57602002820191906000526020600020905b8160009054906101000a900473ffffffffffffffffffffffffffffffffffffffff1673ffffffffffffffffffffffffffffffffffffffff1681526020019060010190808311610aa4575b50505050509050919050565b6060600160003373ffffffffffffffffffffffffffffffffffffffff1673ffffffffffffffffffffffffffffffffffffffff168152602001908152602001600020805480602002602001604051908101604052809291908181526020016000905b82821015610d1a578382906000526020600020906009020160405180610140016040529081600082015481526020016001820160009054906101000a900473ffffffffffffffffffffffffffffffffffffffff1673ffffffffffffffffffffffffffffffffffffffff1673ffffffffffffffffffffffffffffffffffffffff1681526020016002820160009054906101000a900473ffffffffffffffffffffffffffffffffffffffff1673ffffffffffffffffffffffffffffffffffffffff1673ffffffffffffffffffffffffffffffffffffffff1681526020016003820154815260200160048201548152602001600582015481526020016006820154815260200160078201805480602002602001604051908101604052809291908181526020018280548015610cac57602002820191906000526020600020905b815481526020019060010190808311610c98575b505050505081526020016008820160009054906101000a900460ff166003811115610cda57610cd9612666565b5b6003811115610cec57610ceb612666565b5b81526020016008820160019054906101000a900460ff16151515158152505081526020019060010190610b5b565b50505050905090565b60008060008673ffffffffffffffffffffffffffffffffffffffff1673ffffffffffffffffffffffffffffffffffffffff1681526020019081526020016000208381548110610d7557610d74612ae0565b5b90600052602060002090600902019050600081905060005b600160003373ffffffffffffffffffffffffffffffffffffffff1673ffffffffffffffffffffffffffffffffffffffff16815260200190815260200160002080549050811015610ebd578260000154600160003373ffffffffffffffffffffffffffffffffffffffff1673ffffffffffffffffffffffffffffffffffffffff1681526020019081526020016000208281548110610e2d57610e2c612ae0565b5b90600052602060002090600902016000015403610eaa57600160003373ffffffffffffffffffffffffffffffffffffffff1673ffffffffffffffffffffffffffffffffffffffff1681526020019081526020016000208181548110610e9557610e94612ae0565b5b90600052602060002090600902019150610ebd565b8080610eb590612b3e565b915050610d8d565b5060005b8160070180549050811015610f775760026000836007018381548110610eea57610ee9612ae0565b5b90600052602060002001548152602001908152602001600020869080600181540180825580915050600190039060005260206000200160009091909190916101000a81548173ffffffffffffffffffffffffffffffffffffffff021916908373ffffffffffffffffffffffffffffffffffffffff1602179055508080610f6f90612b3e565b915050610ec1565b5082341015610fbb576040517f08c379a0000000000000000000000000000000000000000000000000000000008152600401610fb290612c40565b60405180910390fd5b3373ffffffffffffffffffffffffffffffffffffffff168160020160009054906101000a900473ffffffffffffffffffffffffffffffffffffffff1673ffffffffffffffffffffffffffffffffffffffff161461104d576040517f08c379a000000000000000000000000000000000000000000000000000000000815260040161104490612cac565b60405180910390fd5b6002600381111561106157611060612666565b5b8160080160009054906101000a900460ff16600381111561108557611084612666565b5b146110c5576040517f08c379a00000000000000000000000000000000000000000000000000000000081526004016110bc90612d18565b60405180910390fd5b6003808111156110d8576110d7612666565b5b8160080160009054906101000a900460ff1660038111156110fc576110fb612666565b5b0361113c576040517f08c379a000000000000000000000000000000000000000000000000000000000815260040161113390612d84565b60405180910390fd5b600160038111156111505761114f612666565b5b8160080160009054906101000a900460ff16600381111561117457611173612666565b5b036111b4576040517f08c379a00000000000000000000000000000000000000000000000000000000081526004016111ab90612e16565b60405180910390fd5b8573ffffffffffffffffffffffffffffffffffffffff166108fc349081150290604051600060405180830381858888f193505050501580156111fa573d6000803e3d6000fd5b5060038160080160006101000a81548160ff0219169083600381111561122357611222612666565b5b021790555060038260080160006101000a81548160ff021916908360038111156112505761124f612666565b5b021790555042816004018190555042826004018190555060008160060154905060018260080160016101000a81548160ff0219169083151502179055508573ffffffffffffffffffffffffffffffffffffffff168773ffffffffffffffffffffffffffffffffffffffff167f3746ccceb54f44c9b0ee0120e596168d07ec9f6ca303cfdd9810d3b2e2686a2e84600401546040516112ee9190612016565b60405180910390a38573ffffffffffffffffffffffffffffffffffffffff168773ffffffffffffffffffffffffffffffffffffffff167f2b6f2473aebafaf8d0889669490135928ec4454d2e29a103fd39693bbca6aef1836040516113539190612016565b60405180910390a350505050505050565b60606000803373ffffffffffffffffffffffffffffffffffffffff1673ffffffffffffffffffffffffffffffffffffffff168152602001908152602001600020805480602002602001604051908101604052809291908181526020016000905b82821015611583578382906000526020600020906009020160405180610140016040529081600082015481526020016001820160009054906101000a900473ffffffffffffffffffffffffffffffffffffffff1673ffffffffffffffffffffffffffffffffffffffff1673ffffffffffffffffffffffffffffffffffffffff1681526020016002820160009054906101000a900473ffffffffffffffffffffffffffffffffffffffff1673ffffffffffffffffffffffffffffffffffffffff1673ffffffffffffffffffffffffffffffffffffffff168152602001600382015481526020016004820154815260200160058201548152602001600682015481526020016007820180548060200260200160405190810160405280929190818152602001828054801561151557602002820191906000526020600020905b815481526020019060010190808311611501575b505050505081526020016008820160009054906101000a900460ff16600381111561154357611542612666565b5b600381111561155557611554612666565b5b81526020016008820160019054906101000a900460ff161515151581525050815260200190600101906113c4565b50505050905090565b600160205281600052604060002081815481106115a857600080fd5b9060005260206000209060090201600091509150508060000154908060010160009054906101000a900473ffffffffffffffffffffffffffffffffffffffff16908060020160009054906101000a900473ffffffffffffffffffffffffffffffffffffffff16908060030154908060040154908060050154908060060154908060080160009054906101000a900460ff16908060080160019054906101000a900460ff16905089565b60008060008573ffffffffffffffffffffffffffffffffffffffff1673ffffffffffffffffffffffffffffffffffffffff16815260200190815260200160002082815481106116a3576116a2612ae0565b5b9060005260206000209060090201905060008190508473ffffffffffffffffffffffffffffffffffffffff163373ffffffffffffffffffffffffffffffffffffffff1614611726576040517f08c379a000000000000000000000000000000000000000000000000000000000815260040161171d90612ea8565b60405180910390fd5b60005b600160008673ffffffffffffffffffffffffffffffffffffffff1673ffffffffffffffffffffffffffffffffffffffff16815260200190815260200160002080549050811015611859578260000154600160008773ffffffffffffffffffffffffffffffffffffffff1673ffffffffffffffffffffffffffffffffffffffff16815260200190815260200160002082815481106117c9576117c8612ae0565b5b9060005260206000209060090201600001540361184657600160008673ffffffffffffffffffffffffffffffffffffffff1673ffffffffffffffffffffffffffffffffffffffff168152602001908152602001600020818154811061183157611830612ae0565b5b90600052602060002090600902019150611859565b808061185190612b3e565b915050611729565b506002600381111561186e5761186d612666565b5b8260080160009054906101000a900460ff16600381111561189257611891612666565b5b036118d2576040517f08c379a00000000000000000000000000000000000000000000000000000000081526004016118c990612f14565b60405180910390fd5b600160038111156118e6576118e5612666565b5b8260080160009054906101000a900460ff16600381111561190a57611909612666565b5b0361194a576040517f08c379a000000000000000000000000000000000000000000000000000000000815260040161194190612f80565b60405180910390fd5b60038081111561195d5761195c612666565b5b8260080160009054906101000a900460ff16600381111561198157611980612666565b5b036119c1576040517f08c379a00000000000000000000000000000000000000000000000000000000081526004016119b890612fec565b60405180910390fd5b60028260080160006101000a81548160ff021916908360038111156119e9576119e8612666565b5b021790555060028160080160006101000a81548160ff02191690836003811115611a1657611a15612666565b5b02179055508373ffffffffffffffffffffffffffffffffffffffff168573ffffffffffffffffffffffffffffffffffffffff167faafab9f94340179ff9cefd29621e1772a4b8efab8023163838f1b0a8f6ce5df58460030154604051611a7c9190612016565b60405180910390a35050505050565b60036020528060005260406000206000915090508060000154908060010154905082565b60008060008573ffffffffffffffffffffffffffffffffffffffff1673ffffffffffffffffffffffffffffffffffffffff1681526020019081526020016000208281548110611b0157611b00612ae0565b5b9060005260206000209060090201905060008190508473ffffffffffffffffffffffffffffffffffffffff163373ffffffffffffffffffffffffffffffffffffffff1614611b84576040517f08c379a0000000000000000000000000000000000000000000000000000000008152600401611b7b90612ea8565b60405180910390fd5b60005b600160008673ffffffffffffffffffffffffffffffffffffffff1673ffffffffffffffffffffffffffffffffffffffff16815260200190815260200160002080549050811015611cb7578260000154600160008773ffffffffffffffffffffffffffffffffffffffff1673ffffffffffffffffffffffffffffffffffffffff1681526020019081526020016000208281548110611c2757611c26612ae0565b5b90600052602060002090600902016000015403611ca457600160008673ffffffffffffffffffffffffffffffffffffffff1673ffffffffffffffffffffffffffffffffffffffff1681526020019081526020016000208181548110611c8f57611c8e612ae0565b5b90600052602060002090600902019150611cb7565b8080611caf90612b3e565b915050611b87565b5060016003811115611ccc57611ccb612666565b5b8260080160009054906101000a900460ff166003811115611cf057611cef612666565b5b03611d30576040517f08c379a0000000000000000000000000000000000000000000000000000000008152600401611d2790613058565b60405180910390fd5b600380811115611d4357611d42612666565b5b8260080160009054906101000a900460ff166003811115611d6757611d66612666565b5b03611da7576040517f08c379a0000000000000000000000000000000000000000000000000000000008152600401611d9e906130ea565b60405180910390fd5b60018260080160006101000a81548160ff02191690836003811115611dcf57611dce612666565b5b021790555060018160080160006101000a81548160ff02191690836003811115611dfc57611dfb612666565b5b02179055508373ffffffffffffffffffffffffffffffffffffffff163373ffffffffffffffffffffffffffffffffffffffff167f5375bf5fc595dc7d2f9d33f14ecf814a7cc74218942f4ca9ef8b1036ee1d21f285604051611e5e9190612016565b60405180910390a35050505050565b611e75611fc6565b60006003600084815260200190815260200160002060405180604001604052908160008201548152602001600182015481525050905080915050919050565b60006020528160005260406000208181548110611ed057600080fd5b9060005260206000209060090201600091509150508060000154908060010160009054906101000a900473ffffffffffffffffffffffffffffffffffffffff16908060020160009054906101000a900473ffffffffffffffffffffffffffffffffffffffff16908060030154908060040154908060050154908060060154908060080160009054906101000a900460ff16908060080160019054906101000a900460ff16905089565b828054828255906000526020600020908101928215611fb5579160200282015b82811115611fb4578251825591602001919060010190611f99565b5b509050611fc29190611fe0565b5090565b604051806040016040528060008152602001600081525090565b5b80821115611ff9576000816000905550600101611fe1565b5090565b6000819050919050565b61201081611ffd565b82525050565b600060208201905061202b6000830184612007565b92915050565b6000604051905090565b600080fd5b600080fd5b600073ffffffffffffffffffffffffffffffffffffffff82169050919050565b600061207082612045565b9050919050565b61208081612065565b811461208b57600080fd5b50565b60008135905061209d81612077565b92915050565b6120ac81611ffd565b81146120b757600080fd5b50565b6000813590506120c9816120a3565b92915050565b600080fd5b6000601f19601f8301169050919050565b7f4e487b7100000000000000000000000000000000000000000000000000000000600052604160045260246000fd5b61211d826120d4565b810181811067ffffffffffffffff8211171561213c5761213b6120e5565b5b80604052505050565b600061214f612031565b905061215b8282612114565b919050565b600067ffffffffffffffff82111561217b5761217a6120e5565b5b602082029050602081019050919050565b600080fd5b60006121a461219f84612160565b612145565b905080838252602082019050602084028301858111156121c7576121c661218c565b5b835b818110156121f057806121dc88826120ba565b8452602084019350506020810190506121c9565b5050509392505050565b600082601f83011261220f5761220e6120cf565b5b813561221f848260208601612191565b91505092915050565b600067ffffffffffffffff821115612243576122426120e5565b5b602082029050602081019050919050565b600080fd5b60006040828403121561226f5761226e612254565b5b6122796040612145565b90506000612289848285016120ba565b600083015250602061229d848285016120ba565b60208301525092915050565b60006122bc6122b784612228565b612145565b905080838252602082019050604084028301858111156122df576122de61218c565b5b835b8181101561230857806122f48882612259565b8452602084019350506040810190506122e1565b5050509392505050565b600082601f830112612327576123266120cf565b5b81356123378482602086016122a9565b91505092915050565b60008060008060008060c0878903121561235d5761235c61203b565b5b600061236b89828a0161208e565b965050602061237c89828a016120ba565b955050604061238d89828a016120ba565b945050606061239e89828a016120ba565b935050608087013567ffffffffffffffff8111156123bf576123be612040565b5b6123cb89828a016121fa565b92505060a087013567ffffffffffffffff8111156123ec576123eb612040565b5b6123f889828a01612312565b9150509295509295509295565b6000806040838503121561241c5761241b61203b565b5b600061242a858286016120ba565b925050602061243b858286016120ba565b9150509250929050565b61244e81612065565b82525050565b60006020820190506124696000830184612445565b92915050565b6000602082840312156124855761248461203b565b5b6000612493848285016120ba565b91505092915050565b600081519050919050565b600082825260208201905092915050565b6000819050602082019050919050565b6124d181612065565b82525050565b60006124e383836124c8565b60208301905092915050565b6000602082019050919050565b60006125078261249c565b61251181856124a7565b935061251c836124b8565b8060005b8381101561254d57815161253488826124d7565b975061253f836124ef565b925050600181019050612520565b5085935050505092915050565b6000602082019050818103600083015261257481846124fc565b905092915050565b600081519050919050565b600082825260208201905092915050565b6000819050602082019050919050565b6125b181611ffd565b82525050565b600081519050919050565b600082825260208201905092915050565b6000819050602082019050919050565b60006125ef83836125a8565b60208301905092915050565b6000602082019050919050565b6000612613826125b7565b61261d81856125c2565b9350612628836125d3565b8060005b8381101561265957815161264088826125e3565b975061264b836125fb565b92505060018101905061262c565b5085935050505092915050565b7f4e487b7100000000000000000000000000000000000000000000000000000000600052602160045260246000fd5b600481106126a6576126a5612666565b5b50565b60008190506126b782612695565b919050565b60006126c7826126a9565b9050919050565b6126d7816126bc565b82525050565b60008115159050919050565b6126f2816126dd565b82525050565b60006101408301600083015161271160008601826125a8565b50602083015161272460208601826124c8565b50604083015161273760408601826124c8565b50606083015161274a60608601826125a8565b50608083015161275d60808601826125a8565b5060a083015161277060a08601826125a8565b5060c083015161278360c08601826125a8565b5060e083015184820360e086015261279b8282612608565b9150506101008301516127b26101008601826126ce565b506101208301516127c76101208601826126e9565b508091505092915050565b60006127de83836126f8565b905092915050565b6000602082019050919050565b60006127fe8261257c565b6128088185612587565b93508360208202850161281a85612598565b8060005b85811015612856578484038952815161283785826127d2565b9450612842836127e6565b925060208a0199505060018101905061281e565b50829750879550505050505092915050565b6000602082019050818103600083015261288281846127f3565b905092915050565b600061289582612045565b9050919050565b6128a58161288a565b81146128b057600080fd5b50565b6000813590506128c28161289c565b92915050565b600080600080608085870312156128e2576128e161203b565b5b60006128f0878288016128b3565b94505060206129018782880161208e565b9350506040612912878288016120ba565b9250506060612923878288016120ba565b91505092959194509250565b600080604083850312156129465761294561203b565b5b60006129548582860161208e565b9250506020612965858286016120ba565b9150509250929050565b612978816126bc565b82525050565b612987816126dd565b82525050565b6000610120820190506129a3600083018c612007565b6129b0602083018b612445565b6129bd604083018a612445565b6129ca6060830189612007565b6129d76080830188612007565b6129e460a0830187612007565b6129f160c0830186612007565b6129fe60e083018561296f565b612a0c61010083018461297e565b9a9950505050505050505050565b600080600060608486031215612a3357612a3261203b565b5b6000612a418682870161208e565b9350506020612a528682870161208e565b9250506040612a63868287016120ba565b9150509250925092565b6000604082019050612a826000830185612007565b612a8f6020830184612007565b9392505050565b604082016000820151612aac60008501826125a8565b506020820151612abf60208501826125a8565b50505050565b6000604082019050612ada6000830184612a96565b92915050565b7f4e487b7100000000000000000000000000000000000000000000000000000000600052603260045260246000fd5b7f4e487b7100000000000000000000000000000000000000000000000000000000600052601160045260246000fd5b6000612b4982611ffd565b91507fffffffffffffffffffffffffffffffffffffffffffffffffffffffffffffffff8203612b7b57612b7a612b0f565b5b600182019050919050565b6000606082019050612b9b6000830186612007565b612ba86020830185612007565b612bb56040830184612007565b949350505050565b600082825260208201905092915050565b7f5061796d656e7420616d6f756e74206d757374206d617463682074686520707260008201527f6963652e00000000000000000000000000000000000000000000000000000000602082015250565b6000612c2a602483612bbd565b9150612c3582612bce565b604082019050919050565b60006020820190508181036000830152612c5981612c1d565b9050919050565b7f496e76616c69642072656365697665722e000000000000000000000000000000600082015250565b6000612c96601183612bbd565b9150612ca182612c60565b602082019050919050565b60006020820190508181036000830152612cc581612c89565b9050919050565b7f536869706d656e74206e6f7420696e207472616e7369742e0000000000000000600082015250565b6000612d02601883612bbd565b9150612d0d82612ccc565b602082019050919050565b60006020820190508181036000830152612d3181612cf5565b9050919050565b7f536869706d656e7420616c72656164792064696c696576657265640000000000600082015250565b6000612d6e601b83612bbd565b9150612d7982612d38565b602082019050919050565b60006020820190508181036000830152612d9d81612d61565b9050919050565b7f536869706d656e742063616e63656c6c65642063616e6e6f742072656365697660008201527f65206e6f77000000000000000000000000000000000000000000000000000000602082015250565b6000612e00602583612bbd565b9150612e0b82612da4565b604082019050919050565b60006020820190508181036000830152612e2f81612df3565b9050919050565b7f796f7520617265206e6f7420617574686f72206f662074686973207472616e7360008201527f616374696f6e0000000000000000000000000000000000000000000000000000602082015250565b6000612e92602683612bbd565b9150612e9d82612e36565b604082019050919050565b60006020820190508181036000830152612ec181612e85565b9050919050565b7f20536869706d656e7420616c726561647920696e207472616e7369742e000000600082015250565b6000612efe601d83612bbd565b9150612f0982612ec8565b602082019050919050565b60006020820190508181036000830152612f2d81612ef1565b9050919050565b7f20536869706d656e7420616c72656164792063616e63656c6c65642e00000000600082015250565b6000612f6a601c83612bbd565b9150612f7582612f34565b602082019050919050565b60006020820190508181036000830152612f9981612f5d565b9050919050565b7f20536869706d656e7420616c72656164792064696c696576657265642e000000600082015250565b6000612fd6601d83612bbd565b9150612fe182612fa0565b602082019050919050565b6000602082019050818103600083015261300581612fc9565b9050919050565b7f536869706d656e7420697320616c72656164792063616e63656c6c6564000000600082015250565b6000613042601d83612bbd565b915061304d8261300c565b602082019050919050565b6000602082019050818103600083015261307181613035565b9050919050565b7f50726f6475637420697320616c72656164792064696c6965766572656420636160008201527f6e6e6f742063616e63656c6c6564206e6f770000000000000000000000000000602082015250565b60006130d4603283612bbd565b91506130df82613078565b604082019050919050565b60006020820190508181036000830152613103816130c7565b905091905056fea2646970667358221220bf96aeae038507bb52fe6a03f635eb08d21a6e0ef9a79a0fcb0d526ba2faf50064736f6c63430008120033",
  "linkReferences": {},
  "deployedLinkReferences": {}
}