{
  "_format": "hh-sol-artifact-1",
  "contractName": "Tracking",
  "sourceName": "contracts/Tracking.sol",
  "abi": [
    {
      "inputs": [],
      "stateMutability": "nonpayable",
      "type": "constructor"
    },
    {
      "anonymous": false,
      "inputs": [
        {
          "indexed": true,
          "internalType": "address",
          "name": "sender",
          "type": "address"
        },
        {
          "indexed": true,
          "internalType": "address",
          "name": "receiver",
          "type": "address"
        },
        {
          "indexed": false,
          "internalType": "uint256",
          "name": "shipmentId",
          "type": "uint256"
        }
      ],
      "name": "ShipmentCancelled",
      "type": "event"
    },
    {
      "anonymous": false,
      "inputs": [
        {
          "indexed": true,
          "internalType": "address",
          "name": "sender",
          "type": "address"
        },
        {
          "indexed": true,
          "internalType": "address",
          "name": "receiver",
          "type": "address"
        },
        {
          "indexed": false,
          "internalType": "uint256",
          "name": "pickupTime",
          "type": "uint256"
        },
        {
          "indexed": false,
          "internalType": "uint256",
          "name": "distance",
          "type": "uint256"
        },
        {
          "indexed": false,
          "internalType": "uint256",
          "name": "price",
          "type": "uint256"
        }
      ],
      "name": "ShipmentCreated",
      "type": "event"
    },
    {
      "anonymous": false,
      "inputs": [
        {
          "indexed": true,
          "internalType": "address",
          "name": "sender",
          "type": "address"
        },
        {
          "indexed": true,
          "internalType": "address",
          "name": "receiver",
          "type": "address"
        },
        {
          "indexed": false,
          "internalType": "uint256",
          "name": "deliveryTime",
          "type": "uint256"
        }
      ],
      "name": "ShipmentDelivered",
      "type": "event"
    },
    {
      "anonymous": false,
      "inputs": [
        {
          "indexed": true,
          "internalType": "address",
          "name": "sender",
          "type": "address"
        },
        {
          "indexed": true,
          "internalType": "address",
          "name": "receiver",
          "type": "address"
        },
        {
          "indexed": false,
          "internalType": "uint256",
          "name": "pickupTime",
          "type": "uint256"
        }
      ],
      "name": "ShipmentInTransit",
      "type": "event"
    },
    {
      "anonymous": false,
      "inputs": [
        {
          "indexed": true,
          "internalType": "address",
          "name": "sender",
          "type": "address"
        },
        {
          "indexed": true,
          "internalType": "address",
          "name": "receiver",
          "type": "address"
        },
        {
          "indexed": false,
          "internalType": "uint256",
          "name": "amount",
          "type": "uint256"
        }
      ],
      "name": "ShipmentPaid",
      "type": "event"
    },
    {
      "inputs": [
        {
          "internalType": "address",
          "name": "_sender",
          "type": "address"
        },
        {
          "internalType": "address",
          "name": "_receiver",
          "type": "address"
        },
        {
          "internalType": "uint256",
          "name": "shipmentId",
          "type": "uint256"
        }
      ],
      "name": "cancelShipment",
      "outputs": [],
      "stateMutability": "nonpayable",
      "type": "function"
    },
    {
      "inputs": [
        {
          "internalType": "address payable",
          "name": "_sender",
          "type": "address"
        },
        {
          "internalType": "address",
          "name": "_receiver",
          "type": "address"
        },
        {
          "internalType": "uint256",
          "name": "shipmentId",
          "type": "uint256"
        },
        {
          "internalType": "uint256",
          "name": "_price",
          "type": "uint256"
        }
      ],
      "name": "completeShipment",
      "outputs": [],
      "stateMutability": "payable",
      "type": "function"
    },
    {
      "inputs": [
        {
          "internalType": "address",
          "name": "_receiver",
          "type": "address"
        },
        {
          "internalType": "uint256",
          "name": "_pickupTime",
          "type": "uint256"
        },
        {
          "internalType": "uint256",
          "name": "_distnce",
          "type": "uint256"
        },
        {
          "internalType": "uint256",
          "name": "_price",
          "type": "uint256"
        },
        {
          "internalType": "uint256[]",
          "name": "products",
          "type": "uint256[]"
        },
        {
          "components": [
            {
              "internalType": "uint256",
              "name": "quantity",
              "type": "uint256"
            },
            {
              "internalType": "uint256",
              "name": "productId",
              "type": "uint256"
            }
          ],
          "internalType": "struct Tracking.Product[]",
          "name": "productData",
          "type": "tuple[]"
        }
      ],
      "name": "createShipment",
      "outputs": [],
      "stateMutability": "nonpayable",
      "type": "function"
    },
    {
      "inputs": [
        {
          "internalType": "address",
          "name": "",
          "type": "address"
        },
        {
          "internalType": "uint256",
          "name": "",
          "type": "uint256"
        }
      ],
      "name": "dilieverShipments",
      "outputs": [
        {
          "internalType": "uint256",
          "name": "id",
          "type": "uint256"
        },
        {
          "internalType": "address",
          "name": "sender",
          "type": "address"
        },
        {
          "internalType": "address",
          "name": "receiver",
          "type": "address"
        },
        {
          "internalType": "uint256",
          "name": "pickupTime",
          "type": "uint256"
        },
        {
          "internalType": "uint256",
          "name": "deliveryTime",
          "type": "uint256"
        },
        {
          "internalType": "uint256",
          "name": "distance",
          "type": "uint256"
        },
        {
          "internalType": "uint256",
          "name": "price",
          "type": "uint256"
        },
        {
          "internalType": "enum Tracking.ShipmentStatus",
          "name": "status",
          "type": "uint8"
        },
        {
          "internalType": "bool",
          "name": "isPaid",
          "type": "bool"
        }
      ],
      "stateMutability": "view",
      "type": "function"
    },
    {
      "inputs": [],
      "name": "getAllDilieverTransactions",
      "outputs": [
        {
          "components": [
            {
              "internalType": "uint256",
              "name": "id",
              "type": "uint256"
            },
            {
              "internalType": "address",
              "name": "sender",
              "type": "address"
            },
            {
              "internalType": "address",
              "name": "receiver",
              "type": "address"
            },
            {
              "internalType": "uint256",
              "name": "pickupTime",
              "type": "uint256"
            },
            {
              "internalType": "uint256",
              "name": "deliveryTime",
              "type": "uint256"
            },
            {
              "internalType": "uint256",
              "name": "distance",
              "type": "uint256"
            },
            {
              "internalType": "uint256",
              "name": "price",
              "type": "uint256"
            },
            {
              "internalType": "uint256[]",
              "name": "products",
              "type": "uint256[]"
            },
            {
              "internalType": "enum Tracking.ShipmentStatus",
              "name": "status",
              "type": "uint8"
            },
            {
              "internalType": "bool",
              "name": "isPaid",
              "type": "bool"
            }
          ],
          "internalType": "struct Tracking.Shipment[]",
          "name": "",
          "type": "tuple[]"
        }
      ],
      "stateMutability": "view",
      "type": "function"
    },
    {
      "inputs": [],
      "name": "getAllDilieverTransactionsLength",
      "outputs": [
        {
          "internalType": "uint256",
          "name": "",
          "type": "uint256"
        }
      ],
      "stateMutability": "view",
      "type": "function"
    },
    {
      "inputs": [],
      "name": "getAllReceiveTransactions",
      "outputs": [
        {
          "components": [
            {
              "internalType": "uint256",
              "name": "id",
              "type": "uint256"
            },
            {
              "internalType": "address",
              "name": "sender",
              "type": "address"
            },
            {
              "internalType": "address",
              "name": "receiver",
              "type": "address"
            },
            {
              "internalType": "uint256",
              "name": "pickupTime",
              "type": "uint256"
            },
            {
              "internalType": "uint256",
              "name": "deliveryTime",
              "type": "uint256"
            },
            {
              "internalType": "uint256",
              "name": "distance",
              "type": "uint256"
            },
            {
              "internalType": "uint256",
              "name": "price",
              "type": "uint256"
            },
            {
              "internalType": "uint256[]",
              "name": "products",
              "type": "uint256[]"
            },
            {
              "internalType": "enum Tracking.ShipmentStatus",
              "name": "status",
              "type": "uint8"
            },
            {
              "internalType": "bool",
              "name": "isPaid",
              "type": "bool"
            }
          ],
          "internalType": "struct Tracking.Shipment[]",
          "name": "",
          "type": "tuple[]"
        }
      ],
      "stateMutability": "view",
      "type": "function"
    },
    {
      "inputs": [],
      "name": "getAllReceiveTransactionsLength",
      "outputs": [
        {
          "internalType": "uint256",
          "name": "",
          "type": "uint256"
        }
      ],
      "stateMutability": "view",
      "type": "function"
    },
    {
      "inputs": [
        {
          "internalType": "uint256",
          "name": "productId",
          "type": "uint256"
        }
      ],
      "name": "getProductHistory",
      "outputs": [
        {
          "internalType": "address[]",
          "name": "",
          "type": "address[]"
        }
      ],
      "stateMutability": "view",
      "type": "function"
    },
    {
      "inputs": [
        {
          "internalType": "uint256",
          "name": "productId",
          "type": "uint256"
        }
      ],
      "name": "getProductId",
      "outputs": [
        {
          "internalType": "uint256",
          "name": "",
          "type": "uint256"
        }
      ],
      "stateMutability": "view",
      "type": "function"
    },
    {
      "inputs": [
        {
          "internalType": "uint256",
          "name": "",
          "type": "uint256"
        },
        {
          "internalType": "uint256",
          "name": "",
          "type": "uint256"
        }
      ],
      "name": "productHistory",
      "outputs": [
        {
          "internalType": "address",
          "name": "",
          "type": "address"
        }
      ],
      "stateMutability": "view",
      "type": "function"
    },
    {
      "inputs": [
        {
          "internalType": "uint256",
          "name": "",
          "type": "uint256"
        }
      ],
      "name": "productIdMapping",
      "outputs": [
        {
          "internalType": "uint256",
          "name": "quantity",
          "type": "uint256"
        },
        {
          "internalType": "uint256",
          "name": "productId",
          "type": "uint256"
        }
      ],
      "stateMutability": "view",
      "type": "function"
    },
    {
      "inputs": [
        {
          "internalType": "address",
          "name": "",
          "type": "address"
        },
        {
          "internalType": "uint256",
          "name": "",
          "type": "uint256"
        }
      ],
      "name": "receiveShipments",
      "outputs": [
        {
          "internalType": "uint256",
          "name": "id",
          "type": "uint256"
        },
        {
          "internalType": "address",
          "name": "sender",
          "type": "address"
        },
        {
          "internalType": "address",
          "name": "receiver",
          "type": "address"
        },
        {
          "internalType": "uint256",
          "name": "pickupTime",
          "type": "uint256"
        },
        {
          "internalType": "uint256",
          "name": "deliveryTime",
          "type": "uint256"
        },
        {
          "internalType": "uint256",
          "name": "distance",
          "type": "uint256"
        },
        {
          "internalType": "uint256",
          "name": "price",
          "type": "uint256"
        },
        {
          "internalType": "enum Tracking.ShipmentStatus",
          "name": "status",
          "type": "uint8"
        },
        {
          "internalType": "bool",
          "name": "isPaid",
          "type": "bool"
        }
      ],
      "stateMutability": "view",
      "type": "function"
    },
    {
      "inputs": [],
      "name": "shipmenCount",
      "outputs": [
        {
          "internalType": "uint256",
          "name": "",
          "type": "uint256"
        }
      ],
      "stateMutability": "view",
      "type": "function"
    },
    {
      "inputs": [
        {
          "internalType": "address",
          "name": "_sender",
          "type": "address"
        },
        {
          "internalType": "address",
          "name": "_receiver",
          "type": "address"
        },
        {
          "internalType": "uint256",
          "name": "shipmentId",
          "type": "uint256"
        }
      ],
      "name": "startShipment",
      "outputs": [],
      "stateMutability": "nonpayable",
      "type": "function"
    }
  ],
  "bytecode": "0x608060405234801561001057600080fd5b5060006004819055506130ba806100286000396000f3fe6080604052600436106100e85760003560e01c80636a76893c1161008a578063817f131811610059578063817f1318146102f15780639f77a6051461032f578063c815388c1461036c578063ec1915c114610395576100e8565b80636a76893c1461023c5780637c70bb09146102585780637e75ca70146102835780637ff5265d146102c8576100e8565b80633a7d2376116100c65780633a7d23761461016c5780633e338585146101a957806357a096a1146101d4578063675e285614610211576100e8565b806334084a53146100ed5780633604e24f146101185780633a1cf35114610141575b600080fd5b3480156100f957600080fd5b506101026103da565b60405161010f9190611fda565b60405180910390f35b34801561012457600080fd5b5061013f600480360381019061013a9190612304565b6103e0565b005b34801561014d57600080fd5b50610156610978565b6040516101639190611fda565b60405180910390f35b34801561017857600080fd5b50610193600480360381019061018e91906123c9565b6109c2565b6040516101a09190612418565b60405180910390f35b3480156101b557600080fd5b506101be610a10565b6040516101cb9190611fda565b60405180910390f35b3480156101e057600080fd5b506101fb60048036038101906101f69190612433565b610a59565b604051610208919061251e565b60405180910390f35b34801561021d57600080fd5b50610226610afa565b604051610233919061282c565b60405180910390f35b6102566004803603810190610251919061288c565b610d23565b005b34801561026457600080fd5b5061026d611364565b60405161027a919061282c565b60405180910390f35b34801561028f57600080fd5b506102aa60048036038101906102a591906128f3565b61158c565b6040516102bf99989796959493929190612951565b60405180910390f35b3480156102d457600080fd5b506102ef60048036038101906102ea91906129de565b611651565b005b3480156102fd57600080fd5b5061031860048036038101906103139190612433565b611a8b565b604051610326929190612a31565b60405180910390f35b34801561033b57600080fd5b5061035660048036038101906103519190612433565b611aaf565b6040516103639190611fda565b60405180910390f35b34801561037857600080fd5b50610393600480360381019061038e91906129de565b611ad4565b005b3480156103a157600080fd5b506103bc60048036038101906103b791906128f3565b611e92565b6040516103d199989796959493929190612951565b60405180910390f35b60045481565b60006040518061014001604052806000803373ffffffffffffffffffffffffffffffffffffffff1673ffffffffffffffffffffffffffffffffffffffff1681526020019081526020016000208054905081526020013373ffffffffffffffffffffffffffffffffffffffff1681526020018873ffffffffffffffffffffffffffffffffffffffff16815260200187815260200160008152602001868152602001858152602001848152602001600060038111156104a05761049f61262a565b5b81526020016000151581525090506000803373ffffffffffffffffffffffffffffffffffffffff1673ffffffffffffffffffffffffffffffffffffffff1681526020019081526020016000208190806001815401808255809150506001900390600052602060002090600902016000909190919091506000820151816000015560208201518160010160006101000a81548173ffffffffffffffffffffffffffffffffffffffff021916908373ffffffffffffffffffffffffffffffffffffffff16021790555060408201518160020160006101000a81548173ffffffffffffffffffffffffffffffffffffffff021916908373ffffffffffffffffffffffffffffffffffffffff160217905550606082015181600301556080820151816004015560a0820151816005015560c0820151816006015560e08201518160070190805190602001906105f2929190611f57565b506101008201518160080160006101000a81548160ff0219169083600381111561061f5761061e61262a565b5b02179055506101208201518160080160016101000a81548160ff0219169083151502179055505050600160008873ffffffffffffffffffffffffffffffffffffffff1673ffffffffffffffffffffffffffffffffffffffff1681526020019081526020016000208190806001815401808255809150506001900390600052602060002090600902016000909190919091506000820151816000015560208201518160010160006101000a81548173ffffffffffffffffffffffffffffffffffffffff021916908373ffffffffffffffffffffffffffffffffffffffff16021790555060408201518160020160006101000a81548173ffffffffffffffffffffffffffffffffffffffff021916908373ffffffffffffffffffffffffffffffffffffffff160217905550606082015181600301556080820151816004015560a0820151816005015560c0820151816006015560e082015181600701908051906020019061078c929190611f57565b506101008201518160080160006101000a81548160ff021916908360038111156107b9576107b861262a565b5b02179055506101208201518160080160016101000a81548160ff021916908315150217905550505060005b83518110156108ed576002600085838151811061080457610803612a5a565b5b60200260200101518152602001908152602001600020339080600181540180825580915050600190039060005260206000200160009091909190916101000a81548173ffffffffffffffffffffffffffffffffffffffff021916908373ffffffffffffffffffffffffffffffffffffffff16021790555082818151811061088e5761088d612a5a565b5b6020026020010151600360008684815181106108ad576108ac612a5a565b5b60200260200101518152602001908152602001600020600082015181600001556020820151816001015590505080806108e590612ab8565b9150506107e4565b506004600081548092919061090190612ab8565b91905055508673ffffffffffffffffffffffffffffffffffffffff163373ffffffffffffffffffffffffffffffffffffffff167f5001b34ecf2db5b7bbeddcbbe761ec9ecadcc7638018b98ce3e24995b0e946b688888860405161096793929190612b00565b60405180910390a350505050505050565b6000600160003373ffffffffffffffffffffffffffffffffffffffff1673ffffffffffffffffffffffffffffffffffffffff16815260200190815260200160002080549050905090565b600260205281600052604060002081815481106109de57600080fd5b906000526020600020016000915091509054906101000a900473ffffffffffffffffffffffffffffffffffffffff1681565b60008060003373ffffffffffffffffffffffffffffffffffffffff1673ffffffffffffffffffffffffffffffffffffffff16815260200190815260200160002080549050905090565b606060026000838152602001908152602001600020805480602002602001604051908101604052809291908181526020018280548015610aee57602002820191906000526020600020905b8160009054906101000a900473ffffffffffffffffffffffffffffffffffffffff1673ffffffffffffffffffffffffffffffffffffffff1681526020019060010190808311610aa4575b50505050509050919050565b6060600160003373ffffffffffffffffffffffffffffffffffffffff1673ffffffffffffffffffffffffffffffffffffffff168152602001908152602001600020805480602002602001604051908101604052809291908181526020016000905b82821015610d1a578382906000526020600020906009020160405180610140016040529081600082015481526020016001820160009054906101000a900473ffffffffffffffffffffffffffffffffffffffff1673ffffffffffffffffffffffffffffffffffffffff1673ffffffffffffffffffffffffffffffffffffffff1681526020016002820160009054906101000a900473ffffffffffffffffffffffffffffffffffffffff1673ffffffffffffffffffffffffffffffffffffffff1673ffffffffffffffffffffffffffffffffffffffff1681526020016003820154815260200160048201548152602001600582015481526020016006820154815260200160078201805480602002602001604051908101604052809291908181526020018280548015610cac57602002820191906000526020600020905b815481526020019060010190808311610c98575b505050505081526020016008820160009054906101000a900460ff166003811115610cda57610cd961262a565b5b6003811115610cec57610ceb61262a565b5b81526020016008820160019054906101000a900460ff16151515158152505081526020019060010190610b5b565b50505050905090565b60008060008673ffffffffffffffffffffffffffffffffffffffff1673ffffffffffffffffffffffffffffffffffffffff1681526020019081526020016000208381548110610d7557610d74612a5a565b5b90600052602060002090600902019050600081905060005b600160003373ffffffffffffffffffffffffffffffffffffffff1673ffffffffffffffffffffffffffffffffffffffff16815260200190815260200160002080549050811015610ebd578260000154600160003373ffffffffffffffffffffffffffffffffffffffff1673ffffffffffffffffffffffffffffffffffffffff1681526020019081526020016000208281548110610e2d57610e2c612a5a565b5b90600052602060002090600902016000015403610eaa57600160003373ffffffffffffffffffffffffffffffffffffffff1673ffffffffffffffffffffffffffffffffffffffff1681526020019081526020016000208181548110610e9557610e94612a5a565b5b90600052602060002090600902019150610ebd565b8080610eb590612ab8565b915050610d8d565b5060005b8160070180549050811015610f775760026000836007018381548110610eea57610ee9612a5a565b5b90600052602060002001548152602001908152602001600020869080600181540180825580915050600190039060005260206000200160009091909190916101000a81548173ffffffffffffffffffffffffffffffffffffffff021916908373ffffffffffffffffffffffffffffffffffffffff1602179055508080610f6f90612ab8565b915050610ec1565b5082341015610fbb576040517f08c379a0000000000000000000000000000000000000000000000000000000008152600401610fb290612bba565b60405180910390fd5b3373ffffffffffffffffffffffffffffffffffffffff168160020160009054906101000a900473ffffffffffffffffffffffffffffffffffffffff1673ffffffffffffffffffffffffffffffffffffffff161461104d576040517f08c379a000000000000000000000000000000000000000000000000000000000815260040161104490612c26565b60405180910390fd5b600260038111156110615761106061262a565b5b8160080160009054906101000a900460ff1660038111156110855761108461262a565b5b146110c5576040517f08c379a00000000000000000000000000000000000000000000000000000000081526004016110bc90612c92565b60405180910390fd5b6003808111156110d8576110d761262a565b5b8160080160009054906101000a900460ff1660038111156110fc576110fb61262a565b5b0361113c576040517f08c379a000000000000000000000000000000000000000000000000000000000815260040161113390612cfe565b60405180910390fd5b600160038111156111505761114f61262a565b5b8160080160009054906101000a900460ff1660038111156111745761117361262a565b5b036111b4576040517f08c379a00000000000000000000000000000000000000000000000000000000081526004016111ab90612d90565b60405180910390fd5b8573ffffffffffffffffffffffffffffffffffffffff166108fc349081150290604051600060405180830381858888f193505050501580156111fa573d6000803e3d6000fd5b5060038160080160006101000a81548160ff021916908360038111156112235761122261262a565b5b021790555060038260080160006101000a81548160ff021916908360038111156112505761124f61262a565b5b021790555042816004018190555042826004018190555060008160060154905060018260080160016101000a81548160ff0219169083151502179055508573ffffffffffffffffffffffffffffffffffffffff168773ffffffffffffffffffffffffffffffffffffffff167f3746ccceb54f44c9b0ee0120e596168d07ec9f6ca303cfdd9810d3b2e2686a2e84600401546040516112ee9190611fda565b60405180910390a38573ffffffffffffffffffffffffffffffffffffffff168773ffffffffffffffffffffffffffffffffffffffff167f2b6f2473aebafaf8d0889669490135928ec4454d2e29a103fd39693bbca6aef1836040516113539190611fda565b60405180910390a350505050505050565b60606000803373ffffffffffffffffffffffffffffffffffffffff1673ffffffffffffffffffffffffffffffffffffffff168152602001908152602001600020805480602002602001604051908101604052809291908181526020016000905b82821015611583578382906000526020600020906009020160405180610140016040529081600082015481526020016001820160009054906101000a900473ffffffffffffffffffffffffffffffffffffffff1673ffffffffffffffffffffffffffffffffffffffff1673ffffffffffffffffffffffffffffffffffffffff1681526020016002820160009054906101000a900473ffffffffffffffffffffffffffffffffffffffff1673ffffffffffffffffffffffffffffffffffffffff1673ffffffffffffffffffffffffffffffffffffffff168152602001600382015481526020016004820154815260200160058201548152602001600682015481526020016007820180548060200260200160405190810160405280929190818152602001828054801561151557602002820191906000526020600020905b815481526020019060010190808311611501575b505050505081526020016008820160009054906101000a900460ff1660038111156115435761154261262a565b5b60038111156115555761155461262a565b5b81526020016008820160019054906101000a900460ff161515151581525050815260200190600101906113c4565b50505050905090565b600160205281600052604060002081815481106115a857600080fd5b9060005260206000209060090201600091509150508060000154908060010160009054906101000a900473ffffffffffffffffffffffffffffffffffffffff16908060020160009054906101000a900473ffffffffffffffffffffffffffffffffffffffff16908060030154908060040154908060050154908060060154908060080160009054906101000a900460ff16908060080160019054906101000a900460ff16905089565b60008060008573ffffffffffffffffffffffffffffffffffffffff1673ffffffffffffffffffffffffffffffffffffffff16815260200190815260200160002082815481106116a3576116a2612a5a565b5b9060005260206000209060090201905060008190508473ffffffffffffffffffffffffffffffffffffffff163373ffffffffffffffffffffffffffffffffffffffff1614611726576040517f08c379a000000000000000000000000000000000000000000000000000000000815260040161171d90612e22565b60405180910390fd5b60005b600160008673ffffffffffffffffffffffffffffffffffffffff1673ffffffffffffffffffffffffffffffffffffffff16815260200190815260200160002080549050811015611859578260000154600160008773ffffffffffffffffffffffffffffffffffffffff1673ffffffffffffffffffffffffffffffffffffffff16815260200190815260200160002082815481106117c9576117c8612a5a565b5b9060005260206000209060090201600001540361184657600160008673ffffffffffffffffffffffffffffffffffffffff1673ffffffffffffffffffffffffffffffffffffffff168152602001908152602001600020818154811061183157611830612a5a565b5b90600052602060002090600902019150611859565b808061185190612ab8565b915050611729565b506002600381111561186e5761186d61262a565b5b8260080160009054906101000a900460ff1660038111156118925761189161262a565b5b036118d2576040517f08c379a00000000000000000000000000000000000000000000000000000000081526004016118c990612e8e565b60405180910390fd5b600160038111156118e6576118e561262a565b5b8260080160009054906101000a900460ff16600381111561190a5761190961262a565b5b0361194a576040517f08c379a000000000000000000000000000000000000000000000000000000000815260040161194190612efa565b60405180910390fd5b60038081111561195d5761195c61262a565b5b8260080160009054906101000a900460ff1660038111156119815761198061262a565b5b036119c1576040517f08c379a00000000000000000000000000000000000000000000000000000000081526004016119b890612f66565b60405180910390fd5b60028260080160006101000a81548160ff021916908360038111156119e9576119e861262a565b5b021790555060028160080160006101000a81548160ff02191690836003811115611a1657611a1561262a565b5b02179055508373ffffffffffffffffffffffffffffffffffffffff168573ffffffffffffffffffffffffffffffffffffffff167faafab9f94340179ff9cefd29621e1772a4b8efab8023163838f1b0a8f6ce5df58460030154604051611a7c9190611fda565b60405180910390a35050505050565b60036020528060005260406000206000915090508060000154908060010154905082565b6000806003600084815260200190815260200160002060010154905080915050919050565b60008060008573ffffffffffffffffffffffffffffffffffffffff1673ffffffffffffffffffffffffffffffffffffffff1681526020019081526020016000208281548110611b2657611b25612a5a565b5b9060005260206000209060090201905060008190508473ffffffffffffffffffffffffffffffffffffffff163373ffffffffffffffffffffffffffffffffffffffff1614611ba9576040517f08c379a0000000000000000000000000000000000000000000000000000000008152600401611ba090612e22565b60405180910390fd5b60005b600160008673ffffffffffffffffffffffffffffffffffffffff1673ffffffffffffffffffffffffffffffffffffffff16815260200190815260200160002080549050811015611cdc578260000154600160008773ffffffffffffffffffffffffffffffffffffffff1673ffffffffffffffffffffffffffffffffffffffff1681526020019081526020016000208281548110611c4c57611c4b612a5a565b5b90600052602060002090600902016000015403611cc957600160008673ffffffffffffffffffffffffffffffffffffffff1673ffffffffffffffffffffffffffffffffffffffff1681526020019081526020016000208181548110611cb457611cb3612a5a565b5b90600052602060002090600902019150611cdc565b8080611cd490612ab8565b915050611bac565b5060016003811115611cf157611cf061262a565b5b8260080160009054906101000a900460ff166003811115611d1557611d1461262a565b5b03611d55576040517f08c379a0000000000000000000000000000000000000000000000000000000008152600401611d4c90612fd2565b60405180910390fd5b600380811115611d6857611d6761262a565b5b8260080160009054906101000a900460ff166003811115611d8c57611d8b61262a565b5b03611dcc576040517f08c379a0000000000000000000000000000000000000000000000000000000008152600401611dc390613064565b60405180910390fd5b60018260080160006101000a81548160ff02191690836003811115611df457611df361262a565b5b021790555060018160080160006101000a81548160ff02191690836003811115611e2157611e2061262a565b5b02179055508373ffffffffffffffffffffffffffffffffffffffff163373ffffffffffffffffffffffffffffffffffffffff167f5375bf5fc595dc7d2f9d33f14ecf814a7cc74218942f4ca9ef8b1036ee1d21f285604051611e839190611fda565b60405180910390a35050505050565b60006020528160005260406000208181548110611eae57600080fd5b9060005260206000209060090201600091509150508060000154908060010160009054906101000a900473ffffffffffffffffffffffffffffffffffffffff16908060020160009054906101000a900473ffffffffffffffffffffffffffffffffffffffff16908060030154908060040154908060050154908060060154908060080160009054906101000a900460ff16908060080160019054906101000a900460ff16905089565b828054828255906000526020600020908101928215611f93579160200282015b82811115611f92578251825591602001919060010190611f77565b5b509050611fa09190611fa4565b5090565b5b80821115611fbd576000816000905550600101611fa5565b5090565b6000819050919050565b611fd481611fc1565b82525050565b6000602082019050611fef6000830184611fcb565b92915050565b6000604051905090565b600080fd5b600080fd5b600073ffffffffffffffffffffffffffffffffffffffff82169050919050565b600061203482612009565b9050919050565b61204481612029565b811461204f57600080fd5b50565b6000813590506120618161203b565b92915050565b61207081611fc1565b811461207b57600080fd5b50565b60008135905061208d81612067565b92915050565b600080fd5b6000601f19601f8301169050919050565b7f4e487b7100000000000000000000000000000000000000000000000000000000600052604160045260246000fd5b6120e182612098565b810181811067ffffffffffffffff82111715612100576120ff6120a9565b5b80604052505050565b6000612113611ff5565b905061211f82826120d8565b919050565b600067ffffffffffffffff82111561213f5761213e6120a9565b5b602082029050602081019050919050565b600080fd5b600061216861216384612124565b612109565b9050808382526020820190506020840283018581111561218b5761218a612150565b5b835b818110156121b457806121a0888261207e565b84526020840193505060208101905061218d565b5050509392505050565b600082601f8301126121d3576121d2612093565b5b81356121e3848260208601612155565b91505092915050565b600067ffffffffffffffff821115612207576122066120a9565b5b602082029050602081019050919050565b600080fd5b60006040828403121561223357612232612218565b5b61223d6040612109565b9050600061224d8482850161207e565b60008301525060206122618482850161207e565b60208301525092915050565b600061228061227b846121ec565b612109565b905080838252602082019050604084028301858111156122a3576122a2612150565b5b835b818110156122cc57806122b8888261221d565b8452602084019350506040810190506122a5565b5050509392505050565b600082601f8301126122eb576122ea612093565b5b81356122fb84826020860161226d565b91505092915050565b60008060008060008060c0878903121561232157612320611fff565b5b600061232f89828a01612052565b965050602061234089828a0161207e565b955050604061235189828a0161207e565b945050606061236289828a0161207e565b935050608087013567ffffffffffffffff81111561238357612382612004565b5b61238f89828a016121be565b92505060a087013567ffffffffffffffff8111156123b0576123af612004565b5b6123bc89828a016122d6565b9150509295509295509295565b600080604083850312156123e0576123df611fff565b5b60006123ee8582860161207e565b92505060206123ff8582860161207e565b9150509250929050565b61241281612029565b82525050565b600060208201905061242d6000830184612409565b92915050565b60006020828403121561244957612448611fff565b5b60006124578482850161207e565b91505092915050565b600081519050919050565b600082825260208201905092915050565b6000819050602082019050919050565b61249581612029565b82525050565b60006124a7838361248c565b60208301905092915050565b6000602082019050919050565b60006124cb82612460565b6124d5818561246b565b93506124e08361247c565b8060005b838110156125115781516124f8888261249b565b9750612503836124b3565b9250506001810190506124e4565b5085935050505092915050565b6000602082019050818103600083015261253881846124c0565b905092915050565b600081519050919050565b600082825260208201905092915050565b6000819050602082019050919050565b61257581611fc1565b82525050565b600081519050919050565b600082825260208201905092915050565b6000819050602082019050919050565b60006125b3838361256c565b60208301905092915050565b6000602082019050919050565b60006125d78261257b565b6125e18185612586565b93506125ec83612597565b8060005b8381101561261d57815161260488826125a7565b975061260f836125bf565b9250506001810190506125f0565b5085935050505092915050565b7f4e487b7100000000000000000000000000000000000000000000000000000000600052602160045260246000fd5b6004811061266a5761266961262a565b5b50565b600081905061267b82612659565b919050565b600061268b8261266d565b9050919050565b61269b81612680565b82525050565b60008115159050919050565b6126b6816126a1565b82525050565b6000610140830160008301516126d5600086018261256c565b5060208301516126e8602086018261248c565b5060408301516126fb604086018261248c565b50606083015161270e606086018261256c565b506080830151612721608086018261256c565b5060a083015161273460a086018261256c565b5060c083015161274760c086018261256c565b5060e083015184820360e086015261275f82826125cc565b915050610100830151612776610100860182612692565b5061012083015161278b6101208601826126ad565b508091505092915050565b60006127a283836126bc565b905092915050565b6000602082019050919050565b60006127c282612540565b6127cc818561254b565b9350836020820285016127de8561255c565b8060005b8581101561281a57848403895281516127fb8582612796565b9450612806836127aa565b925060208a019950506001810190506127e2565b50829750879550505050505092915050565b6000602082019050818103600083015261284681846127b7565b905092915050565b600061285982612009565b9050919050565b6128698161284e565b811461287457600080fd5b50565b60008135905061288681612860565b92915050565b600080600080608085870312156128a6576128a5611fff565b5b60006128b487828801612877565b94505060206128c587828801612052565b93505060406128d68782880161207e565b92505060606128e78782880161207e565b91505092959194509250565b6000806040838503121561290a57612909611fff565b5b600061291885828601612052565b92505060206129298582860161207e565b9150509250929050565b61293c81612680565b82525050565b61294b816126a1565b82525050565b600061012082019050612967600083018c611fcb565b612974602083018b612409565b612981604083018a612409565b61298e6060830189611fcb565b61299b6080830188611fcb565b6129a860a0830187611fcb565b6129b560c0830186611fcb565b6129c260e0830185612933565b6129d0610100830184612942565b9a9950505050505050505050565b6000806000606084860312156129f7576129f6611fff565b5b6000612a0586828701612052565b9350506020612a1686828701612052565b9250506040612a278682870161207e565b9150509250925092565b6000604082019050612a466000830185611fcb565b612a536020830184611fcb565b9392505050565b7f4e487b7100000000000000000000000000000000000000000000000000000000600052603260045260246000fd5b7f4e487b7100000000000000000000000000000000000000000000000000000000600052601160045260246000fd5b6000612ac382611fc1565b91507fffffffffffffffffffffffffffffffffffffffffffffffffffffffffffffffff8203612af557612af4612a89565b5b600182019050919050565b6000606082019050612b156000830186611fcb565b612b226020830185611fcb565b612b2f6040830184611fcb565b949350505050565b600082825260208201905092915050565b7f5061796d656e7420616d6f756e74206d757374206d617463682074686520707260008201527f6963652e00000000000000000000000000000000000000000000000000000000602082015250565b6000612ba4602483612b37565b9150612baf82612b48565b604082019050919050565b60006020820190508181036000830152612bd381612b97565b9050919050565b7f496e76616c69642072656365697665722e000000000000000000000000000000600082015250565b6000612c10601183612b37565b9150612c1b82612bda565b602082019050919050565b60006020820190508181036000830152612c3f81612c03565b9050919050565b7f536869706d656e74206e6f7420696e207472616e7369742e0000000000000000600082015250565b6000612c7c601883612b37565b9150612c8782612c46565b602082019050919050565b60006020820190508181036000830152612cab81612c6f565b9050919050565b7f536869706d656e7420616c72656164792064696c696576657265640000000000600082015250565b6000612ce8601b83612b37565b9150612cf382612cb2565b602082019050919050565b60006020820190508181036000830152612d1781612cdb565b9050919050565b7f536869706d656e742063616e63656c6c65642063616e6e6f742072656365697660008201527f65206e6f77000000000000000000000000000000000000000000000000000000602082015250565b6000612d7a602583612b37565b9150612d8582612d1e565b604082019050919050565b60006020820190508181036000830152612da981612d6d565b9050919050565b7f796f7520617265206e6f7420617574686f72206f662074686973207472616e7360008201527f616374696f6e0000000000000000000000000000000000000000000000000000602082015250565b6000612e0c602683612b37565b9150612e1782612db0565b604082019050919050565b60006020820190508181036000830152612e3b81612dff565b9050919050565b7f20536869706d656e7420616c726561647920696e207472616e7369742e000000600082015250565b6000612e78601d83612b37565b9150612e8382612e42565b602082019050919050565b60006020820190508181036000830152612ea781612e6b565b9050919050565b7f20536869706d656e7420616c72656164792063616e63656c6c65642e00000000600082015250565b6000612ee4601c83612b37565b9150612eef82612eae565b602082019050919050565b60006020820190508181036000830152612f1381612ed7565b9050919050565b7f20536869706d656e7420616c72656164792064696c696576657265642e000000600082015250565b6000612f50601d83612b37565b9150612f5b82612f1a565b602082019050919050565b60006020820190508181036000830152612f7f81612f43565b9050919050565b7f536869706d656e7420697320616c72656164792063616e63656c6c6564000000600082015250565b6000612fbc601d83612b37565b9150612fc782612f86565b602082019050919050565b60006020820190508181036000830152612feb81612faf565b9050919050565b7f50726f6475637420697320616c72656164792064696c6965766572656420636160008201527f6e6e6f742063616e63656c6c6564206e6f770000000000000000000000000000602082015250565b600061304e603283612b37565b915061305982612ff2565b604082019050919050565b6000602082019050818103600083015261307d81613041565b905091905056fea26469706673582212201d22ab2fc6c560b500020e18d796ae9081491c2de7f7c4bf23d004a8a1f8a6e864736f6c63430008120033",
  "linkReferences": {},
  "deployedLinkReferences": {}
}